:101A4000234C5F485F30302320202020202020209E
:101A500023424C48454C492445464D3842323123B7
:101A0000100721FFFFFFFFFFFF09FF01FF55AA019C
:101A1000FFFFFFFFFF03FFFFFF25D0285004FF0259
:0A1A2000FF7AFF0701FFFF0000FF3F
:101A60002020202020202020202020202020202076
:030000000219FDE5
:02000300611C7E
:02000B00018D65
:02001300A13713
:02001B008073F0
:02002B0041D1C1
:02005B00A146BC
:02007300610921
:100080000406080C10182030406080A0C0054032E3
:10009000C2AFC2A853E6EFC28E856B8BC0D0D2D35D
:1000A000C0E0C0F0C2CAA8CCA9CDD2CAD2AF758A6E
:1000B00000C3E8956CF8E9956DF9C3E913F9E81305
:1000C000F8E5666007C3E913F9E813F8E97025E875
:1000D000956E4020956E501CE582B410177C007B15
:1000E000007A007908900000A86AE5667004C3E809
:1000F00013F801FD900000D2A8D2AA61E7E0FDC389
:100100009CC39840EF98EB33FB0582E0FCC39DC392
:100110009840E198EB33FB0582E0FDC39CC3984017
:10012000D398EB33FB0582E0FCC39DC39840C59890
:10013000EB33FB0582E0FDC39CC39840B798EB33DB
:10014000FB0582E0FCC39DC39840A998EB33FB05F7
:0D01500082E0FDC39CC398409B98EB33FBFD
:10015D000582E0FCC39DC398408D98EB33FB05826F
:10016D002178900000D2A8D2AA61E7E0FDC39CC31C
:10017D009840EF98EA33FA0582E0FCC39DC398409E
:10018D00E198EA33FA0582E0FDC39CC39840D39809
:10019D00EA33FA0582E0FCC39DC39840C598EA3363
:1001AD00FA0582E0FDC39CC39840B798EA33FA057F
:1001BD0082E0FCC39DC39840A998EA33FA0582E01A
:1001CD00FDC39CC398409B98EA33FA0582E0FCC3BB
:1001DD009DC398408D98EA33FA0582EBC46B6A543F
:1001ED00F0F9EAC454F0C3996009900000D2A8D286
:1001FD00AA61E7EBF4C454F0F9EAF4C4540F49FAD8
:0B020D00EBF4C4540FFBC3EAF994604B
:10021800FAEB9400FB5020C3E97B007A0079006078
:1002280016C3135006F9C39552600AE9F55275537F
:1002380000790080020553303A27C3EA94D0F8EBDE
:100248009407F9400BE8FAE9FB203509D235415DFE
:10025800303502C235203902B235C3EA33FAEB33FE
:10026800FBEB2B3B3BF9C3EB13FBEA13FAEA29FA46
:10027800EB3400FB30E3047AFF7BFFE52554036091
:100288001B202A18E55D33F9EB7007C3E99A400291
:10029800E9FAE53CC4332AFAEB3400FBC3EA33C479
:1002A800540FF8EB33C454F048F87005EA6002784C
:1002B80001900000D2A8D2AAE5226002152281D4BA
:1002C800900000D2A8D2AA61E7C0D0C0E0C2CF0592
:1002D80041E5666009E56560057565006104756559
:1002E80001E52360021523C3E554600575550061D7
:1002F80004E5552401F55550037555FFD0E0D0D0DD
:0303080032C2AF4F
:10030B0053E67F7592FA7593FFC22053917FD2AF5C
:10031B0032C0E0E58A303408856B8BF0A3D0E03235
:10032B00D0E0C2AF53E6EFC0D0C0E0C0F0D2D3D222
:10033B00AF5388EFA88AA98CAA40308D010A758A21
:10034B0000758C00754000438810E566700AC3E8A1
:10035B0033F8E933F9EA33FA30331FE8C4540FFAB0
:10036B00E9C454F04AFAC3132AFAC3E833F8E93361
:10037B00F9E82AFAE93406FB61D830320FC3E833C7
:10038B00E933FAE82AFAE93400FB61D8303115E891
:10039B0075F056A4AAF0E975F056A42AFAC5F03404
:1003AB0000FB61D8C3EA13FAE913F9E813F8E8750F
:1003BB00F056A4AAF0E975F056A42AFAC5F0340059
:1003CB00C313FBEA13FAC3EB13FBEA13FAC3EB9465
:1003DB00125009C3EA9434EB940750160522E52218
:0503EB0070021522C3A1
:1003F000E52294325002A12A755400A12DE5226015
:100400000215223036067C007D088117AC31AD32F2
:10041000303A04AC33AD34C3EA9CFAEB9DFB92084E
:10042000AE60AF61303A425007203509D235813590
:10043000303502C235303504AE62AF63203902B2C6
:1004400035C3EA33FAEB33FBA208500AEAF424017D
:10045000FAEBF43400FBC3EA9450FAEB9400FB503F
:100460001478007A007B008175A208500878007A21
:10047000007B0081D4E5255403601B202A18E55D2C
:1004800033F9EB7007C3E99A4002E9FAE53CC4335B
:100490002AFAEB3400FBEA8EF0A4F9AAF0EB8EF016
:1004A000A42AFAC5F03400FBC3EB13FDEA13F8C32A
:1004B000ED13FDE813F80FEF146004C3E833F8C33D
:1004C000E933EA33FAEB33FBDFEDEB30E30678FF99
:0804D0007AFF7B078854D2304B
:1004D800E86003755500C3E55BFC955C4002AC5CC5
:1004E800C3EC95545008EC75F008A4FAABF0EAF4A4
:1004F800F8EBF45407F98856895775230AE55A30FA
:10050800E210D0F0D0E0D0D053F7DF43F74043E615
:100518001032D0F0D0E0D0D053D8FE43DA0143E611
:10052800103275230AD0F0D0E0D0D043E61032C2A2
:10053800AAD28EC2CA85CC6C85CD6DD2CA32C2AF62
:10054800C0D0C0E0D2D38556FB8557FC85575A5397
:10055800F7BF53DAFED2A8303402D2AA53E6EF53DB
:10056800F7DF53D8FED0E0D0D0D2AF327901801473
:1005780079038010790A800C791E800879648004D8
:1005880079C880007817E4D5E0FDD8FAD9F6227842
:10059800FF20282879A1E76023E548601F74FF85BC
:1005A80048F084853FF030290375F005A4F8C5F0BC
:1005B800600278FFC3E8955D5002A85D885C22C39D
:1005C800E54794A0E5489400E55C500314A1D804DD
:1005D8006002F55C2275E89022055EC3E55E94082A
:1005E800405330EDF4A8BDA9BE755E00E9FA79A0C4
:0605F800E76041EA700615
:1005FE00E55F6018800CC3E8955F600EE55F5005FF
:10060E00600A1480070460FA8002E55FF55FC39507
:10061E0069401B755BC0C394044013755B80C39423
:10062E0004400B755B40C394044003755B0022E5E8
:10063E005B2410500274FFF55B22743279A687F0AA
:10064E00A4C5F0A2F733F55D227547007548F02278
:10065E00C2AFC2CAA8CCA9CDAA4130CF010AD2CA14
:10066E00D2AFC3EA13FAE913F9E813F8AB42AC437D
:10067E0088428943C3E89BF8E99C20280A547FF9F5
:10068E00302C02E17CC1D5AD448A44F9EA9D547FF9
:10069E00FA600678FF79FFC1BAAE45AF468B458C3E
:1006AE0046A842A943C3E89EF8E99FF9C3E548135B
:1006BE00FBE54713FAE82AF547E93BF5485006757E
:1006CE0047FF7548FFE122AA47AB48AC47AD487ECD
:1006DE00047F02C3EB9404400D1E1FC3EB9408402D
:0906EE00052029021E1FC3ED13B3
:1006F700FDEC13FCDEF7C3EA9CFAEB9DFBEF600908
:10070700C3E913F9E813F8DFF7EA28FAEB39FB8AAC
:10071700478B4850067BFF8B478B48C3EB940250AF
:1007270002D22C3028047F03E14D7892E6FFC3E51F
:100737003D948240110FC3E53D94A040010FC3EFE4
:10074700940640027F057E02E548C4540FF9E54848
:10075700C454F0F8E547C4540F28F8C3E89EFAE9F3
:100767009400FB4009C3EA9401EB940050047A011A
:10077700E4FB0207C8AA47AB48EBC4FEEAC4540F20
:100787004EFCC3EA9CFAEB9400FBC3E813C313F8CF
:10079700EA28FAEB3400FB8A478B48C3EB94024004
:1007A70002C22C7802EBC4FE7B00EAC4540F4EFA57
:1007B700C3EA98FA4005C3940150027A017892E699
:0107C700FF32
:1007C800302002E1C8854E92854F93D22043E680BF
:1007D800C3E49AF8E49BF9C3E833F8E933F9302C19
:1007E8000302085DE8FAE9FBD3E913FDE813FC8886
:1007F8004E894FC3EF94036038EF20E00CE82CF8E3
:10080800E93DF9ECFAEDFB8013E828F8E939F9C37A
:10081800E82401F8E93400F97AFF7BFFC3EF940379
:10082800400F8A508B51884A894B8C4C8D4D020859
:1008380092885089518A4A8B4B8C4C8D4D302812A6
:100848007550F07551FF754CF0754DFF754EF0758C
:100858004FFF020892E8FAD3E813FC884EC3EF94DE
:10086800036021EF20E007E82CF8ECFA017DE82886
:100878002401F87AFFC3EF940340098A50884A8C10
:100888004C02089288508A4A8C4C3020020192759A
:100898003A02D22043E680E5255403602DA847A9F3
:1008A80048C3E913F9E813F8302804E92440F9C2E9
:0408B800AF53E67FD5
:1008BC00759100C3E498F594E499F595759104D27B
:1008CC002043E680D2AF22D221754900752000303A
:1008DC002B0375204001F1D2217549007520403061
:1008EC002B0375200078017901202C20E525540379
:1008FC006002C2217914E548C313700104F8C39453
:10090C001440027814302804781B791BC3E833F8A0
:10091C00C3E933F9202010E549600C302803D53A9F
:10092C0004D22221A8119AD2870549E59B5440B5DF
:10093C002002219030280908C3E899400118212091
:10094C0020210A08C3E899400201F12120C2215359
:10095C00E67F759100302C117594007595F07591AA
:10096C0004D22043E6800208F1E5487EFFC3334001
:10097C0009C3334005C3334001FEC3E49E759400A4
:10098C00F595216AC287C3E5399401500201F13013
:10099C00210201F1D80221A62120C222C2AF53E6C6
:1009AC007F759100855094855195759104854A9277
:1009BC00854B93D22043E680D2AFE52554036007E4
:1009CC002029020539801030220D202B0A20210706
:0F09DC00158115810213F0227800302102780175
:1009EB00E53D75F007A4F9E5F028F5F0E9A2F01361
:1009FB00A2F113A2F213F53DC394785003753D7821
:100A0B00C3E53D953E4009C295C294C29375D57F0F
:100A1B00302002411B854C92854D93D22043E680BA
:100A2B0022203814C2AFC294C292D295D29375D5FC
:100A3B003ED2AF759F13612CC2AFC294C290D293BA
:100A4B00D29575D53BD2AF759F13612C203814C24C
:100A5B00AFC293D29475D53DC292D295D2AF759F4A
:100A6B0003612CC2AFC295D29475D53DC290D2937F
:100A7B00D2AF759F23612C203814C2AFC295C290A0
:100A8B00D293D29475D53DD2AF759F23612CC2AF53
:100A9B00C293C292D295D29475D53DD2AF759F03B6
:100AAB00807F203814C2AFC294D29575D53BC290CB
:100ABB00D293D2AF759F138068C2AFC294D2937595
:100ACB00D53EC292D295D2AF759F13805420381465
:100ADB00C2AFC293C291D294D29575D53BD2AF75AA
:100AEB009F03803DC2AFC295C291D294D29375D56C
:100AFB003ED2AF759F238029203814C2AFC295D246
:100B0B009375D53EC291D294D2AF759F238012C2FA
:100B1B00AFC293D29575D53BC291D294D2AF759F8C
:060B2B0003227A147B781E
:100B310080127A107B8C800C7A0D7BB480067A0B44
:100B41007BC88000E564D5E001227902E4C294D536
:100B5100E0FDD291D294D5E0FDC294D5E0FDC291E1
:100B6100D294D5E0FDE920E004D292D29530E004A0
:100B7100D290D293E564D5E0FDE920E002C2953040
:100B8100E002C2937496D5E0FDD9C1EAF8D5E0FD43
:100B9100D8FBDBB0C29422C295C294C293C295C263
:100BA10094C29375D57F22788076FF0876FF087608
:100BB100FF0876FF0876FF0876FF0876090876FFBA
:100BC100087601788C76010876FF0876FF0876FFB3
:100BD1000876FF0876FF0876030876FF0876FF0897
:100BE10076FF0876250876D00876280876500876AC
:100BF100040876FF0876020876FF08767A0876FF01
:100C01000876070876010876FF0876FF087600085F
:100C1100760022FA75F00CA4ABF0EAC333F8740144
:0D0C210033F9E8C333F8E933F9E8C32BF8E1
:100C2E00E93400F9E8C333F8E933F9227888E6C3EA
:100C3E009403D23A5002C23AC238E630E102D238B8
:100C4E00A23892397886E6149000809378A6F678CA
:100C5E0086E6F53FC394025003753F02789CE67515
:100C6E003EFFB40203753EA0B40303753E8278A026
:100C7E00E6F8600674282409D8FCF5697896E691A2
:100C8E001488318932789EE69114883389347897A6
:100C9E00E69114883589367198223036117A007BA8
:100CAE00007CFF7D007E00B10E8B618A6022303A9F
:100CBE00227896E6FA7B00789EE6FC7D00C3EA3346
:100CCE00FAEB33FBC3EC33FCED33FD7E0AB10E8B36
:100CDE00638A627896303A02789EE6FA7B007897BD
:100CEE00E6FC7D007E00303A10C3EA33FAEB33FBAC
:100CFE00C3EC33FCED33FD7E0AB10E8B618A6022AC
:0D0D0E00C3EC9EFCED9400FDC3EC9AFCEDDF
:100D1B009BFDC3EC9423ED940050047C237D00C316
:100D2B00EC94FFED940140047CFF7D017BFF0B7A7B
:100D3B00000AEA7009C3EC33FCED33FDA139EC8AF0
:100D4B00F0A4AEF0ED8AF0A42E947C40E4EAF460BB
:100D5B00DD22D23691A81205801205807A007B0025
:100D6B007C10120578E5542AFA74003BFBDCF37C0B
:100D7B0004C3EB13FBEA13FADCF7FFEB60027FFF14
:100D8B00C23691A82278A5E6F95403D2877002C225
:100D9B0087E9540C7000E954307000E954C07000BE
:100DAB00227567007568007597DE7597AD7581C004
:100DBB0043FF8075EF0675A90071987580FF75F17B
:100DCB00F075A4007580FF75D4FF75900075F23F28
:100DDB0075A53F75900075D57F75A60175E34075B8
:100DEB00E2027198E4F8F6D8FD71A812143A7898DB
:100DFB008664753001C2AF120588712D12058071A2
:100E0B00331205807139120580B190C287C2AF755C
:100E1B00670075680078FA79FA308507D9FBD8F73F
:0D0E2B00021C00913A91A878988664719895
:100E380075A91375A71075C10075A70075660075AB
:100E4800E405758811758E0475890975C80475914E
:100E58000475D84075D90875F783759E0075960294
:100E680075DA4A75DB0075A82375E69075B80175C3
:100E78009B80759D0075D10C75BCB975BB1075E864
:100E88008075B201120574D2AF753C00C2301205EC
:100E980088C231C232C233C23475520075530075EC
:100EA8002200120584C3E522940A5002E17ED23161
:100EB800752200120584C3E522940A5002E17EC21D
:100EC80031D232752200120584C3E522940A5002F9
:100ED800E17E75E4D5758851758E017589AA758C82
:100EE80000758D00C2A9D2ABD2AA756B80756A1441
:100EF800756E50C232D23475220A120584756A1092
:100F0800C3E522940A7552007553004069758E0C2A
:100F1800756B00756A28756E2875220A1205847526
:100F28006A20C3E522940A7552007553004047753C
:100F38008E0C756B80756A14756E1475220A12050D
:100F480084756A10C3E522940A75520075530040EF
:100F58002575E405758811758E04758909D2A9C2AD
:100F6800ABC2AAC234D233752200120584C3E5226B
:100F7800940A4002C118120578203003020E18C2E4
:100F8800AF712D712D712DD2AF1205882034033029
:100F98003A03021040120578788CE6C39401500396
:080FA800021040E530C3940182
:100FB00050030210407567A57568F17F02D2369123
:100FC000A8120584C2AFC23691A8C3E554947FD25B
:100FD000AF406D120574C2AF713FD2AFDFDFB15DBC
:100FE000C3EF7897F61205881215277F0AD236913B
:100FF000A8120584C2AFC23691A8C3E554947FD22B
:10100000AF50E8120574C2AF120B2D12057C120B03
:101010002DD2AFDFD8120D5DEF24037896F6F87964
:1010200097E7C394234003985006E824237897F663
:101030001205889181B156120584120CA8020E186F
:10104000756700756800120584C3E5549401400378
:10105000020F94C2AF120B3F120B3F120B3FD2AFE5
:10106000120588753000E4F537F5380537E537F4B3
:10107000703F0538789AE678191460127832146057
:101080000D787D14600878FA146003753800C3E5A4
:101090003898401D120B9812057415387537007872
:1010A000998664C2AF120B3FD2AF7898866412055E
:1010B0008412057CE5237003020E18C3E5549401E5
:1010C000500AC3E5529401501602106B120584E5D4
:1010D000237003020E18755200755300021281C36B
:0B10E000E55294017017C2AF120B988C
:1010EB0078998664120B2D78988664D2AF1205849A
:1010FB004173C3E55294027017C2AF120B987899E3
:10110B008664120B3378988664D2AF1205844173D0
:10111B00C3E55294037017C2AF120B98789986648B
:10112B00120B3978988664D2AF1205844173C3E5EC
:10113B005294047017C2AF120B9878998664120BF5
:10114B003F78988664D2AF1205844173C3E55294FD
:10115B00057017C2AF120B9878998664120B3F7803
:10116B00988664D2AF1205844173C3E5529407701D
:10117B0019C3E5539406500201BB7401303A027453
:10118B00037888F6C238C2394173C3E552940870AC
:10119B0019C3E5539406500201BB7402303A027432
:1011AB00047888F6D238D2394173C3E5529409706A
:1011BB0017C3E5539406500201BB303A0BC3788832
:1011CB00E69402F6C23A4173C3E552940A7016C311
:1011DB00E5539406500201BB203A0A7888E62402B4
:1011EB00F6D23A4173C3E55294147025C3E5539478
:1011FB0006500201BBC2AF901A0B740093D2AF78AA
:07120B0088F613C238C23956
:101212004002D2384002D2398057C3E55294157049
:1012220038C3E5539406404FC2AF901A0B74009333
:10123200D2AFF8B801027402B802027401B8030214
:101242007404B8040274037888F613C238C23940B1
:1012520002D2384002D2398018C3E552940C701180
:101262007567A57568F1C3E5539406400A9181D26A
:10127200AF75520075530075670075680001BBC2F7
:10128200AF120B98E4D2AFE4F55EF524F525F53DF7
:10129200755E081205741205DD30EDFDA8BDA9BE0C
:1012A200E97001F8885F1205E1755E08C2AF1206A7
:1012B20048855D5B855D5CD2AF75A71075C13075E1
:1012C200A70075A903756601303A07C238303502A6
:1012D200D238D228753900120AD8120B03120657D7
:1012E20012065E12065712065E1206571208E31223
:1012F20009E4120A2C12065E1208D3202C031205EE
:1013020097302C031205C71209E4120A5712065E1F
:101312001208E31209E4120A8212065E1208D312BC
:1013220009E4120AAD12065E1208E31209E4120A77
:10133200D812065E1205DD1208D31209E4120B035D
:101342001205E112065E302827855D5B79187A0C5A
:10135200C3E53999400EC228D2298A3B855D5B8557
:101362005D5C800CC3E554940140030212EE61F807
:0613720030291F202B1C96
:10137800E53B147006C229D22A41EEF53B203A0714
:10138800C3E554940140030212EE8064753C0020CA
:101398003A0F78FA79A4E760027803C3E5559850C4
:1013A8004FE523604B303A17203805203507800F6A
:1013B800303502800A202B07D22B855D5B611E78B1
:1013C800F0302B05855D5B7820C3E5489850030213
:1013D80012EE302B1BC22BC238303502D238D2293C
:1013E800753B12855D5B41EE053CE554600261FB8F
:1013F800753C00C2AF120B9875240075250075A9BD
:101408001375A71075C10075A700756600D2AF12D5
:101418000584120B9878A4E6600CC292D295C2910A
:10142800D294C290D293C3E53C94044003020E18B0
:101438000166901A0D782091BAE520B4550AA39157
:10144800BAE520B4AA0280137567A57568F1120B76
:10145800A89181756700756800801D901A037880CF
:101468007B0A91BAA308DBFA901A0F788C7B1A9141
:10147800BAA308DBFA901A2922C2AF91FD91DA903B
:101488001A00741091BFA3740791BFA3742191BF70
:10149800901A0378807B0A91BEA308DBFA901A0F92
:1014A800788C7B1A91BEA308DBFAB11091EE901AE2
:1014B8002922E493F622E6438F01538FFDFFC3E50B
:1014C80083941C400122EF8567B78568B7F0538F76
:1014D800FE22438F02438F018567B78568B7901A4C
:1014E8000DF0538FFC22901A0D745591BF901A0E6F
:1014F80074AA91BF227A3079D07820901A4091BA94
:10150800E520F709A3DAF7227A3079D0901A40E774
:1015180091BF09A3DAF9227C05120588DCFB22C2F7
:10152800AF120B2D120B33120B39120B3F12057C25
:10153800120B2D120B33120B39120B3F12057C12B2
:101548000B2D120B33120B39120B3FD2AF22C2AF45
:10155800120B3F120B39120B33120B2D12057C1292
:101568000B3F120B39120B33120B2D12057C120B89
:0D1578003F120B39120B33120B2DD2AF2294
:101C0000C2AFC2D37597DE7597AD7581C075A90057
:101C100043FF80752438752503B1DB7529A5752A26
:101C2000F143F12053A4DFD28575D4FF75E3407DE5
:101C3000FA780379067C01752200752300901DE86F
:101C40007B067524E67525FF3085028148208508CE
:101C5000D8FBD9F9DCF781BA308508D8FBD9F9DC93
:101C6000F781BAB19BE493A3C39A6004DDC381BA40
:101C7000DBDBB18D600281317B08E493FAA3B16EA6
:101C8000DBF87A30B16E752200752300B18DEAFC65
:101C9000EBFDC3ED94FE400EB18D8A278B28ED300D
:101CA000E0048A828B83B18D7AC270D8C3ED94FE32
:101CB000601950CEBD0029EC600F7520007521FF22
:101CC000752900752A000200008100A827A92808AC
:101CD00009D804D90281DDB191EAF281D10D81A642
:101CE000C3ED94035051EDA2E092007AC5C3E582A2
:101CF0009400E583941C508C200010438F02438F86
:101D0000018529B7852AB7F0300027A827A9280818
:101D100009438F01538FFDD804D902A132C3E58353
:101D2000941C4003A3A117E28529B7852AB7F0A325
:101D3000A117538FFC81827AC1BD030CE493A3FAEF
:101D4000B152DCF8B14A81828184AA22AB23B16E00
:101D5000EBFAEA6222752608C3E52313F523E52290
:101D600013F52250066323A0632201D526EAB1DBD6
:101D7000B1DB75260AEAF4200102D285300102C2E5
:101D800085B1DBC3134002C201D526EB22B191EA33
:101D9000FB208502A191308502A196752608AE240C
:101DA000AF25C3EF13FFEE13FEB1DFB1DBC3EA13C0
:101DB0003085024480FA30E703632201C3E5231330
:101DC000F523E52213F52250066323A0632201D5F3
:101DD00026D9E52265236523F52222AE24AF250E00
:101DE0000FDEFEDFFCD20122424C48656C693437BD
:061DF0003164E8B20601B7
:0319FD00020DAC2C
:00000001FF
