BL51 BANKED LINKER/LOCATER V6.22.2.0                                                    02/17/2021  22:51:27  PAGE 1


BL51 BANKED LINKER/LOCATER V6.22.2.0, INVOKED BY:
C:\KEIL_V5\C51\BIN\BL51.EXE .\Objects\BLHeli_S.obj TO .\Objects\BLHeli_S PRINT (.\Listings\BLHeli_S.m51) RAMSIZE (256) C
>> ODE (0X0000-0X3FFF) XDATA (0X0000-0X07FF)


INPUT MODULES INCLUDED:
  .\Objects\BLHeli_S.obj (BLHELI_S)


LINK MAP OF MODULE:  .\Objects\BLHeli_S (BLHELI_S)


            TYPE    BASE      LENGTH    RELOCATION   SEGMENT NAME
            -----------------------------------------------------

            * * * * * * *   D A T A   M E M O R Y   * * * * * * *
            REG     0000H     0008H     ABSOLUTE     "REG BANK 0"
                    0008H     0018H                  *** GAP ***
            DATA    0020H     000BH     ABSOLUTE     
                    002BH     0005H                  *** GAP ***
            DATA    0030H     003FH     ABSOLUTE     
                    006FH     0011H                  *** GAP ***
            IDATA   0080H     0027H     ABSOLUTE     
                    00A7H     0029H                  *** GAP ***
            IDATA   00D0H     0030H     ABSOLUTE     

            * * * * * * *   C O D E   M E M O R Y   * * * * * * *
            CODE    0000H     0003H     ABSOLUTE     
            CODE    0003H     0002H     ABSOLUTE     
                    0005H     0006H                  *** GAP ***
            CODE    000BH     0002H     ABSOLUTE     
                    000DH     0006H                  *** GAP ***
            CODE    0013H     0002H     ABSOLUTE     
                    0015H     0006H                  *** GAP ***
            CODE    001BH     0002H     ABSOLUTE     
                    001DH     000EH                  *** GAP ***
            CODE    002BH     0002H     ABSOLUTE     
                    002DH     002EH                  *** GAP ***
            CODE    005BH     0002H     ABSOLUTE     
                    005DH     0016H                  *** GAP ***
            CODE    0073H     0002H     ABSOLUTE     
                    0075H     000BH                  *** GAP ***
            CODE    0080H     1505H     ABSOLUTE     
                    1585H     0478H                  *** GAP ***
            CODE    19FDH     0003H     ABSOLUTE     
            CODE    1A00H     002AH     ABSOLUTE     
                    1A2AH     0016H                  *** GAP ***
            CODE    1A40H     0010H     ABSOLUTE     
            CODE    1A50H     0010H     ABSOLUTE     
            CODE    1A60H     0010H     ABSOLUTE     
                    1A70H     0190H                  *** GAP ***
            CODE    1C00H     01F6H     ABSOLUTE     



SYMBOL TABLE OF MODULE:  .\Objects\BLHeli_S (BLHELI_S)

  VALUE           TYPE          NAME
BL51 BANKED LINKER/LOCATER V6.22.2.0                                                  02/17/2021  22:51:27  PAGE 2


  ----------------------------------

  -------         MODULE        BLHELI_S
  C:1C31H         SYMBOL        ABD
  D:00E0H         SYMBOL        ACC
  B:00E0H.0       SYMBOL        ACC_ACC0
  B:00E0H.1       SYMBOL        ACC_ACC1
  B:00E0H.2       SYMBOL        ACC_ACC2
  B:00E0H.3       SYMBOL        ACC_ACC3
  B:00E0H.4       SYMBOL        ACC_ACC4
  B:00E0H.5       SYMBOL        ACC_ACC5
  B:00E0H.6       SYMBOL        ACC_ACC6
  B:00E0H.7       SYMBOL        ACC_ACC7
  N:0005H         SYMBOL        ACOMFET
  D:00BDH         SYMBOL        ADC0
  D:00B3H         SYMBOL        ADC0AC
  D:00BCH         SYMBOL        ADC0CF
  D:00E8H         SYMBOL        ADC0CN0
  B:00E8H.6       SYMBOL        ADC0CN0_ADBMEN
  B:00E8H.4       SYMBOL        ADC0CN0_ADBUSY
  B:00E8H.0       SYMBOL        ADC0CN0_ADCM0
  B:00E8H.1       SYMBOL        ADC0CN0_ADCM1
  B:00E8H.2       SYMBOL        ADC0CN0_ADCM2
  B:00E8H.7       SYMBOL        ADC0CN0_ADEN
  B:00E8H.5       SYMBOL        ADC0CN0_ADINT
  B:00E8H.3       SYMBOL        ADC0CN0_ADWINT
  D:00B2H         SYMBOL        ADC0CN1
  N:000AH         SYMBOL        ADC0EOC_IRQN
  D:00C3H         SYMBOL        ADC0GT
  D:00C4H         SYMBOL        ADC0GTH
  D:00C3H         SYMBOL        ADC0GTL
  D:00BEH         SYMBOL        ADC0H
  D:00BDH         SYMBOL        ADC0L
  D:00C5H         SYMBOL        ADC0LT
  D:00C6H         SYMBOL        ADC0LTH
  D:00C5H         SYMBOL        ADC0LTL
  D:00BBH         SYMBOL        ADC0MX
  D:00DFH         SYMBOL        ADC0PWR
  D:00B9H         SYMBOL        ADC0TK
  N:0009H         SYMBOL        ADC0WC_IRQN
  D:005EH         SYMBOL        ADC_CONVERSION_CNT
  C:0811H         SYMBOL        ADJUST_TIMING_TWO_STEPS
  C:0876H         SYMBOL        ADJUST_TIMING_TWO_STEPS_FAST
  N:0002H         SYMBOL        APWMFET
  C:0FB5H         SYMBOL        ARMING_CHECK
  C:0FABH         SYMBOL        ARMING_INITIAL_ARM_CHECK
  C:0F94H         SYMBOL        ARMING_START
  C:1053H         SYMBOL        ARM_END_BEEP
  C:0D5DH         SYMBOL        AVERAGE_THROTTLE
  C:0D7CH         SYMBOL        AVERAGE_THROTTLE_DIV
  C:0D6DH         SYMBOL        AVERAGE_THROTTLE_MEAS
  N:0001H         SYMBOL        A_
  D:00F0H         SYMBOL        B
  D:0025H         SYMBOL        BAUDH
  D:0024H         SYMBOL        BAUDL
  N:FFE6H         SYMBOL        BAUDTIME
  N:0004H         SYMBOL        BCOMFET
BL51 BANKED LINKER/LOCATER V6.22.2.0                                                  02/17/2021  22:51:27  PAGE 3


  C:0B45H         SYMBOL        BEEP
  C:0B80H         SYMBOL        BEEP_APWMFET_OFF
  C:0B6EH         SYMBOL        BEEP_APWMFET_ON
  C:0B85H         SYMBOL        BEEP_CPWMFET_OFF
  C:0B75H         SYMBOL        BEEP_CPWMFET_ON
  C:108EH         SYMBOL        BEEP_DELAY_SET
  C:0B2DH         SYMBOL        BEEP_F1
  C:0B33H         SYMBOL        BEEP_F2
  C:0B39H         SYMBOL        BEEP_F3
  C:0B3FH         SYMBOL        BEEP_F4
  C:0B8EH         SYMBOL        BEEP_OFF
  C:0B4DH         SYMBOL        BEEP_ONOFF
  C:0B4BH         SYMBOL        BEEP_START
  D:0064H         SYMBOL        BEEP_STRENGTH
  D:0020H         SYMBOL        BIT_ACCESS
  D:0021H         SYMBOL        BIT_ACCESS_INT
  D:0026H         SYMBOL        BIT_CNT
  D:0020H         SYMBOL        BIT_REG
  D:0029H         SYMBOL        BL_FLASH_KEY_1
  D:002AH         SYMBOL        BL_FLASH_KEY_2
  C:0E2EH         SYMBOL        BOOTLOADER_DONE
  N:4B00H         SYMBOL        BOOT_BAUDRATE
  N:1E10H         SYMBOL        BOOT_DELAY
  C:1DF2H         SYMBOL        BOOT_INFO
  C:1DEEH         SYMBOL        BOOT_MSG
  N:0001H         SYMBOL        BOOT_PAGES
  C:1DE8H         SYMBOL        BOOT_SIGN
  N:1C00H         SYMBOL        BOOT_START
  N:0006H         SYMBOL        BOOT_VERSION
  N:0001H         SYMBOL        BPWMFET
  D:0028H         SYMBOL        BYTE_CNTH
  D:0027H         SYMBOL        BYTE_CNTL
  D:0021H         SYMBOL        BYTE_REG
  N:0002H         SYMBOL        B_
  B:00F0H.0       SYMBOL        B_B0
  B:00F0H.1       SYMBOL        B_B1
  B:00F0H.2       SYMBOL        B_B2
  B:00F0H.3       SYMBOL        B_B3
  B:00F0H.4       SYMBOL        B_B4
  B:00F0H.5       SYMBOL        B_B5
  B:00F0H.6       SYMBOL        B_B6
  B:00F0H.7       SYMBOL        B_B7
  C:074DH         SYMBOL        CALC_NEW_WAIT_PER_DEMAG_DONE
  C:0731H         SYMBOL        CALC_NEW_WAIT_PER_STARTUP_DONE
  C:07D8H         SYMBOL        CALC_NEW_WAIT_TIMES
  C:0779H         SYMBOL        CALC_NEW_WAIT_TIMES_EXIT
  C:085DH         SYMBOL        CALC_NEW_WAIT_TIMES_FAST
  C:07C4H         SYMBOL        CALC_NEW_WAIT_TIMES_FAST_DONE
  C:0722H         SYMBOL        CALC_NEW_WAIT_TIMES_SETUP
  C:06F4H         SYMBOL        CALC_NEXT_COMM_AVG_PERIOD_DIV
  C:0707H         SYMBOL        CALC_NEXT_COMM_NEW_PERIOD_DIV
  C:0710H         SYMBOL        CALC_NEXT_COMM_NEW_PERIOD_DIV_DONE
  C:06D5H         SYMBOL        CALC_NEXT_COMM_NORMAL
  C:0695H         SYMBOL        CALC_NEXT_COMM_STARTUP
  C:06BAH         SYMBOL        CALC_NEXT_COMM_STARTUP_AVERAGE
  C:06A7H         SYMBOL        CALC_NEXT_COMM_STARTUP_NO_X
  C:065EH         SYMBOL        CALC_NEXT_COMM_TIMING
BL51 BANKED LINKER/LOCATER V6.22.2.0                                                  02/17/2021  22:51:27  PAGE 4


  C:077CH         SYMBOL        CALC_NEXT_COMM_TIMING_FAST
  N:0003H         SYMBOL        CCOMFET
  D:0034H         SYMBOL        CENTER_THROTTLE_H
  D:0033H         SYMBOL        CENTER_THROTTLE_L
  C:10DFH         SYMBOL        CHECK_DSHOT_CMD
  C:05E1H         SYMBOL        CHECK_TEMP_VOLTAGE_AND_LIMIT_POWER
  C:063DH         SYMBOL        CHECK_VOLTAGE_START
  D:008EH         SYMBOL        CKCON0
  D:00A6H         SYMBOL        CKCON1
  C:1273H         SYMBOL        CLEAR_DSHOT_CMD
  C:0DF1H         SYMBOL        CLEAR_RAM
  D:00A9H         SYMBOL        CLKSEL
  D:0066H         SYMBOL        CLOCK_SET_AT_48MHZ
  D:009BH         SYMBOL        CMP0CN0
  D:0099H         SYMBOL        CMP0CN1
  D:009DH         SYMBOL        CMP0MD
  D:009FH         SYMBOL        CMP0MX
  N:000CH         SYMBOL        CMP0_IRQN
  D:00BFH         SYMBOL        CMP1CN0
  D:00ACH         SYMBOL        CMP1CN1
  D:00ABH         SYMBOL        CMP1MD
  D:00AAH         SYMBOL        CMP1MX
  N:000DH         SYMBOL        CMP1_IRQN
  C:0A43H         SYMBOL        COMM12_REV
  C:0A2CH         SYMBOL        COMM1COMM2
  C:0A6EH         SYMBOL        COMM23_REV
  C:0A57H         SYMBOL        COMM2COMM3
  C:0A99H         SYMBOL        COMM34_REV
  C:0A82H         SYMBOL        COMM3COMM4
  C:0AC4H         SYMBOL        COMM45_REV
  C:0AADH         SYMBOL        COMM4COMM5
  C:0AEFH         SYMBOL        COMM56_REV
  C:0AD8H         SYMBOL        COMM5COMM6
  C:0B1AH         SYMBOL        COMM61_REV
  C:0B03H         SYMBOL        COMM6COMM1
  C:0B2CH         SYMBOL        COMM_EXIT
  D:0048H         SYMBOL        COMM_PERIOD4X_H
  D:0047H         SYMBOL        COMM_PERIOD4X_L
  D:0049H         SYMBOL        COMPARATOR_READ_CNT
  C:0920H         SYMBOL        COMP_CHECK_TIMEOUT
  C:0931H         SYMBOL        COMP_CHECK_TIMEOUT_EXTEND_TIMEOUT
  C:0933H         SYMBOL        COMP_CHECK_TIMEOUT_NOT_TIMED_OUT
  C:092DH         SYMBOL        COMP_CHECK_TIMEOUT_TIMEOUT_EXTENDED
  N:0003H         SYMBOL        COMP_COM
  C:0990H         SYMBOL        COMP_READ_OK
  C:09A4H         SYMBOL        COMP_READ_OK_JMP
  C:0940H         SYMBOL        COMP_READ_WRONG
  C:0959H         SYMBOL        COMP_READ_WRONG_EXTEND_TIMEOUT
  C:0986H         SYMBOL        COMP_READ_WRONG_LOAD_TIMEOUT
  C:0975H         SYMBOL        COMP_READ_WRONG_LOW_RPM
  C:094CH         SYMBOL        COMP_READ_WRONG_NOT_STARTUP
  C:096AH         SYMBOL        COMP_READ_WRONG_TIMEOUT_SET
  C:0918H         SYMBOL        COMP_SCALE_SAMPLES
  N:0002H         SYMBOL        COMP_TIMED_OUT
  N:0000H         SYMBOL        CPWMFET
  D:00CEH         SYMBOL        CRC0CN0
  D:0086H         SYMBOL        CRC0CN1
BL51 BANKED LINKER/LOCATER V6.22.2.0                                                  02/17/2021  22:51:27  PAGE 5


  D:00D3H         SYMBOL        CRC0CNT
  D:00DEH         SYMBOL        CRC0DAT
  D:00CFH         SYMBOL        CRC0FLIP
  D:00DDH         SYMBOL        CRC0IN
  D:00D2H         SYMBOL        CRC0ST
  N:0000H         SYMBOL        CRC0_PAGE
  D:0023H         SYMBOL        CRCH
  D:0022H         SYMBOL        CRCL
  D:005FH         SYMBOL        CURRENT_AVERAGE_TEMP
  D:005AH         SYMBOL        CURRENT_POWER_PWM_REG_H
  N:0003H         SYMBOL        C_
  D:0059H         SYMBOL        DAMP_PWM_REG_H
  D:0058H         SYMBOL        DAMP_PWM_REG_L
  N:0000H         SYMBOL        DEBUGPIN
  C:0C7CH         SYMBOL        DECODE_DEMAG_DONE
  C:0C76H         SYMBOL        DECODE_DEMAG_HIGH
  C:0C3AH         SYMBOL        DECODE_SETTINGS
  C:0C88H         SYMBOL        DECODE_TEMP_DONE
  C:0C84H         SYMBOL        DECODE_TEMP_STEP
  N:0004H         SYMBOL        DEFAULT_PGM_BEACON_DELAY
  N:0050H         SYMBOL        DEFAULT_PGM_BEACON_STRENGTH
  N:0028H         SYMBOL        DEFAULT_PGM_BEEP_STRENGTH
  N:0000H         SYMBOL        DEFAULT_PGM_BRAKE_ON_STOP
  N:007AH         SYMBOL        DEFAULT_PGM_CENTER_THROTTLE
  N:0003H         SYMBOL        DEFAULT_PGM_COMM_TIMING
  N:0002H         SYMBOL        DEFAULT_PGM_DEMAG_COMP
  N:0001H         SYMBOL        DEFAULT_PGM_DIRECTION
  N:0001H         SYMBOL        DEFAULT_PGM_ENABLE_POWER_PROT
  N:0007H         SYMBOL        DEFAULT_PGM_ENABLE_TEMP_PROT
  N:0001H         SYMBOL        DEFAULT_PGM_ENABLE_TX_PROGRAM
  N:0000H         SYMBOL        DEFAULT_PGM_LED_CONTROL
  N:00D0H         SYMBOL        DEFAULT_PGM_MAX_THROTTLE
  N:0025H         SYMBOL        DEFAULT_PGM_MIN_THROTTLE
  N:0009H         SYMBOL        DEFAULT_PGM_STARTUP_PWR
  N:0001H         SYMBOL        DEMAG_DETECTED
  D:003DH         SYMBOL        DEMAG_DETECTED_METRIC
  D:003EH         SYMBOL        DEMAG_PWR_OFF_THRESH
  D:00ADH         SYMBOL        DERIVID
  D:00B5H         SYMBOL        DEVICEID
  C:1366H         SYMBOL        DIRECT_START_CHECK_RCP
  N:0003H         SYMBOL        DIR_CHANGE_BRAKE
  C:1279H         SYMBOL        DONT_CLEAR_DSHOT_CMD
  D:0082H         SYMBOL        DP
  D:0083H         SYMBOL        DPH
  D:0082H         SYMBOL        DPL
  C:10FDH         SYMBOL        DSHOT_BEEP_2
  C:111BH         SYMBOL        DSHOT_BEEP_3
  C:1139H         SYMBOL        DSHOT_BEEP_4
  C:1157H         SYMBOL        DSHOT_BEEP_5
  D:0052H         SYMBOL        DSHOT_CMD
  D:0053H         SYMBOL        DSHOT_CMD_CNT
  C:1175H         SYMBOL        DSHOT_DIRECTION_1
  C:1195H         SYMBOL        DSHOT_DIRECTION_2
  C:11B5H         SYMBOL        DSHOT_DIRECTION_BIDIR_OFF
  C:11D3H         SYMBOL        DSHOT_DIRECTION_BIDIR_ON
  C:11F0H         SYMBOL        DSHOT_DIRECTION_NORMAL
  C:121CH         SYMBOL        DSHOT_DIRECTION_REVERSE
BL51 BANKED LINKER/LOCATER V6.22.2.0                                                  02/17/2021  22:51:27  PAGE 6


  D:006EH         SYMBOL        DSHOT_FRAME_LENGTH_THR
  D:006DH         SYMBOL        DSHOT_FRAME_START_H
  D:006CH         SYMBOL        DSHOT_FRAME_START_L
  D:006AH         SYMBOL        DSHOT_PWM_THR
  C:125BH         SYMBOL        DSHOT_SAVE_SETTINGS
  D:006BH         SYMBOL        DSHOT_TIMER_PRESET
  N:0004H         SYMBOL        D_
  N:0010H         SYMBOL        EEPROM_FW_MAIN_REVISION
  N:0007H         SYMBOL        EEPROM_FW_SUB_REVISION
  N:0021H         SYMBOL        EEPROM_LAYOUT_REVISION
  C:1A29H         SYMBOL        EEP_DUMMY
  C:1A0FH         SYMBOL        EEP_ENABLE_TX_PROGRAM
  C:1A40H         SYMBOL        EEP_ESC_LAYOUT
  C:1A50H         SYMBOL        EEP_ESC_MCU
  C:1A00H         SYMBOL        EEP_FW_MAIN_REVISION
  C:1A01H         SYMBOL        EEP_FW_SUB_REVISION
  C:1A0EH         SYMBOL        EEP_INITIALIZED_H
  C:1A0DH         SYMBOL        EEP_INITIALIZED_L
  C:1A02H         SYMBOL        EEP_LAYOUT_REVISION
  C:1A60H         SYMBOL        EEP_NAME
  C:1A1DH         SYMBOL        EEP_PGM_BEACON_DELAY
  C:1A1CH         SYMBOL        EEP_PGM_BEACON_STRENGTH
  C:1A1BH         SYMBOL        EEP_PGM_BEEP_STRENGTH
  C:1A27H         SYMBOL        EEP_PGM_BRAKE_ON_STOP
  C:1A21H         SYMBOL        EEP_PGM_CENTER_THROTTLE
  C:1A15H         SYMBOL        EEP_PGM_COMM_TIMING
  C:1A1FH         SYMBOL        EEP_PGM_DEMAG_COMP
  C:1A0BH         SYMBOL        EEP_PGM_DIRECTION
  C:1A24H         SYMBOL        EEP_PGM_ENABLE_POWER_PROT
  C:1A28H         SYMBOL        EEP_PGM_LED_CONTROL
  C:1A1AH         SYMBOL        EEP_PGM_MAX_THROTTLE
  C:1A19H         SYMBOL        EEP_PGM_MIN_THROTTLE
  C:1A09H         SYMBOL        EEP_PGM_STARTUP_PWR
  C:1A23H         SYMBOL        EEP_PGM_TEMP_PROT_ENABLE
  D:00E6H         SYMBOL        EIE1
  D:00CEH         SYMBOL        EIE2
  D:00F3H         SYMBOL        EIP1
  D:00F5H         SYMBOL        EIP1H
  D:00F4H         SYMBOL        EIP2
  D:00F6H         SYMBOL        EIP2H
  D:00E7H         SYMBOL        EMI0CN
  C:1481H         SYMBOL        ERASE_AND_STORE_ALL_IN_EEPROM
  C:14DAH         SYMBOL        ERASE_FLASH
  N:00C1H         SYMBOL        ERRORCOMMAND
  N:00C2H         SYMBOL        ERRORCRC
  N:00C5H         SYMBOL        ERRORPROG
  N:00C0H         SYMBOL        ERRORVERIFY
  N:000CH         SYMBOL        ESCNO
  C:09C6H         SYMBOL        EVALUATE_COMPARATOR_INTEGRITY
  C:09D3H         SYMBOL        EVAL_COMP_CHECK_TIMEOUT
  C:09E3H         SYMBOL        EVAL_COMP_EXIT
  C:1CBAH         SYMBOL        EXIT
  N:0005H         SYMBOL        E_
  N:0000H         SYMBOL        FETON_DELAY
  C:0D0EH         SYMBOL        FIND_THROTTLE_GAIN
  C:0CA8H         SYMBOL        FIND_THROTTLE_GAINS
  C:0CE1H         SYMBOL        FIND_THROTTLE_GAINS_BIDIR_DONE
BL51 BANKED LINKER/LOCATER V6.22.2.0                                                  02/17/2021  22:51:27  PAGE 7


  C:0CBCH         SYMBOL        FIND_THROTTLE_GAINS_NORMAL
  C:0D07H         SYMBOL        FIND_THROTTLE_GAIN_FWD
  C:0D39H         SYMBOL        FIND_THROTTLE_GAIN_LOOP
  D:0024H         SYMBOL        FLAGS0
  D:0025H         SYMBOL        FLAGS1
  D:0026H         SYMBOL        FLAGS2
  D:0027H         SYMBOL        FLAGS3
  D:0067H         SYMBOL        FLASH_KEY_1
  D:0068H         SYMBOL        FLASH_KEY_2
  D:00B7H         SYMBOL        FLKEY
  N:0006H         SYMBOL        F_
  C:1D96H         SYMBOL        GET1
  C:1DABH         SYMBOL        GET2
  C:1DCFH         SYMBOL        GET3
  C:1D91H         SYMBOL        GETC
  C:1D8DH         SYMBOL        GETW
  C:1D9BH         SYMBOL        GETX
  C:0363H         SYMBOL        GET_RCP_END
  N:0007H         SYMBOL        G_
  D:00C7H         SYMBOL        HFO0CAL
  D:00D6H         SYMBOL        HFO1CAL
  D:00EFH         SYMBOL        HFOCN
  N:0004H         SYMBOL        HIGH_RPM
  N:0008H         SYMBOL        H_
  D:00BAH         SYMBOL        I2C0CN0
  D:00BCH         SYMBOL        I2C0DIN
  D:00BBH         SYMBOL        I2C0DOUT
  D:00ADH         SYMBOL        I2C0FCN0
  D:00ABH         SYMBOL        I2C0FCN1
  D:00F5H         SYMBOL        I2C0FCT
  D:00BDH         SYMBOL        I2C0SLAD
  D:00B9H         SYMBOL        I2C0STAT
  N:0012H         SYMBOL        I2C0_IRQN
  N:0020H         SYMBOL        I2CSLAVE0_PAGE
  C:1C4DH         SYMBOL        ID1
  C:1C58H         SYMBOL        ID3
  C:1C63H         SYMBOL        ID4
  C:1C70H         SYMBOL        ID5
  D:00A8H         SYMBOL        IE
  B:00A8H.7       SYMBOL        IE_EA
  B:00A8H.4       SYMBOL        IE_ES0
  B:00A8H.6       SYMBOL        IE_ESPI0
  B:00A8H.1       SYMBOL        IE_ET0
  B:00A8H.3       SYMBOL        IE_ET1
  B:00A8H.5       SYMBOL        IE_ET2
  B:00A8H.0       SYMBOL        IE_EX0
  B:00A8H.2       SYMBOL        IE_EX1
  C:1C7AH         SYMBOL        IN1
  C:1C00H         SYMBOL        INIT
  I:008BH         SYMBOL        INITIALIZED_H_DUMMY
  I:008AH         SYMBOL        INITIALIZED_L_DUMMY
  C:0657H         SYMBOL        INITIALIZE_TIMING
  D:0030H         SYMBOL        INITIAL_ARM
  C:1383H         SYMBOL        INITIAL_RUN_CHECK_STARTUP_ROT
  C:138FH         SYMBOL        INITIAL_RUN_CONTINUE_RUN
  N:0001H         SYMBOL        INITIAL_RUN_PHASE
  C:1394H         SYMBOL        INITIAL_RUN_PHASE_DONE
BL51 BANKED LINKER/LOCATER V6.22.2.0                                                  02/17/2021  22:51:27  PAGE 8


  D:003BH         SYMBOL        INITIAL_RUN_ROT_CNTD
  C:0E18H         SYMBOL        INIT_NO_SIGNAL
  C:1281H         SYMBOL        INIT_START
  C:12D4H         SYMBOL        INIT_START_BIDIR_DONE
  C:0E22H         SYMBOL        INPUT_HIGH_CHECK_1
  C:0E24H         SYMBOL        INPUT_HIGH_CHECK_2
  C:031CH         SYMBOL        INT0_INT
  C:0456H         SYMBOL        INT0_INT_BIDIR_DO_DEADBAND
  C:0430H         SYMBOL        INT0_INT_BIDIR_FWD
  C:0435H         SYMBOL        INT0_INT_BIDIR_REV_CHK
  C:0417H         SYMBOL        INT0_INT_CALCULATE
  C:03FDH         SYMBOL        INT0_INT_CHECK_FULL_RANGE
  C:0475H         SYMBOL        INT0_INT_DO_THROTTLE_GAIN
  C:052DH         SYMBOL        INT0_INT_EXIT
  C:03D8H         SYMBOL        INT0_INT_FALL_GAIN_DONE
  C:0385H         SYMBOL        INT0_INT_FALL_NOT_MULTISHOT
  C:03AFH         SYMBOL        INT0_INT_FALL_NOT_ONESHOT_125
  C:0397H         SYMBOL        INT0_INT_FALL_NOT_ONESHOT_42
  C:04B7H         SYMBOL        INT0_INT_GAIN_LOOP
  C:04BFH         SYMBOL        INT0_INT_GAIN_RCP_DONE
  C:0469H         SYMBOL        INT0_INT_NOT_BIDIR
  C:032BH         SYMBOL        INT0_INT_NOT_DSHOT
  C:03E7H         SYMBOL        INT0_INT_OUTSIDE_RANGE
  C:04D4H         SYMBOL        INT0_INT_PULSE_READY
  C:040CH         SYMBOL        INT0_INT_SET_MIN
  C:051AH         SYMBOL        INT0_INT_SET_PCA_INT_HI_PWM
  C:04F6H         SYMBOL        INT0_INT_SET_PWM_REGISTERS
  C:052AH         SYMBOL        INT0_INT_SET_TIMEOUT
  C:0496H         SYMBOL        INT0_INT_STARTUP_BOOSTED
  C:048CH         SYMBOL        INT0_INT_STARTUP_BOOST_STALL
  C:046DH         SYMBOL        INT0_INT_UNIDIR_NEG
  N:0000H         SYMBOL        INT0_IRQN
  C:0537H         SYMBOL        INT1_INT
  N:0002H         SYMBOL        INT1_IRQN
  D:00B8H         SYMBOL        IP
  D:00F2H         SYMBOL        IPH
  B:00B8H.4       SYMBOL        IP_PS0
  B:00B8H.6       SYMBOL        IP_PSPI0
  B:00B8H.1       SYMBOL        IP_PT0
  B:00B8H.3       SYMBOL        IP_PT1
  B:00B8H.5       SYMBOL        IP_PT2
  B:00B8H.0       SYMBOL        IP_PX0
  B:00B8H.2       SYMBOL        IP_PX1
  D:00E4H         SYMBOL        IT01CF
  N:0009H         SYMBOL        I_
  C:1438H         SYMBOL        JMP_WAIT_FOR_POWER_ON
  N:000AH         SYMBOL        J_
  N:000BH         SYMBOL        K_
  N:0007H         SYMBOL        LED0_PIN
  C:0D9CH         SYMBOL        LED_0_DONE
  C:0DA1H         SYMBOL        LED_1_DONE
  C:0DA6H         SYMBOL        LED_2_DONE
  C:0DABH         SYMBOL        LED_3_DONE
  C:0D90H         SYMBOL        LED_CONTROL
  N:0000H         SYMBOL        LEGACY_PAGE
  D:00B1H         SYMBOL        LFO0CN
  C:0775H         SYMBOL        LOAD_MIN_TIME
BL51 BANKED LINKER/LOCATER V6.22.2.0                                                  02/17/2021  22:51:27  PAGE 9


  C:07C2H         SYMBOL        LOAD_MIN_TIME_FAST
  D:003FH         SYMBOL        LOW_RPM_PWR_SLOPE
  N:000CH         SYMBOL        L_
  C:1C84H         SYMBOL        MAI1
  C:1CA6H         SYMBOL        MAI2
  C:1CE0H         SYMBOL        MAI4
  C:1D37H         SYMBOL        MAI5
  C:1D48H         SYMBOL        MAI6
  C:1C82H         SYMBOL        MAIN
  D:0036H         SYMBOL        MAX_THROTTLE_H
  D:0035H         SYMBOL        MAX_THROTTLE_L
  N:0001H         SYMBOL        MCU_48MHZ
  D:0032H         SYMBOL        MIN_THROTTLE_H
  D:0031H         SYMBOL        MIN_THROTTLE_L
  N:0002H         SYMBOL        MOTOR_STARTED
  N:0002H         SYMBOL        MUX_A
  N:0001H         SYMBOL        MUX_B
  N:0000H         SYMBOL        MUX_C
  N:000DH         SYMBOL        M_
  D:0054H         SYMBOL        NEW_RCP
  C:1372H         SYMBOL        NORMAL_RUN_CHECKS
  N:000EH         SYMBOL        N_
  N:000FH         SYMBOL        O_
  D:0080H         SYMBOL        P0
  D:00FEH         SYMBOL        P0MASK
  D:00FDH         SYMBOL        P0MAT
  D:00F1H         SYMBOL        P0MDIN
  D:00A4H         SYMBOL        P0MDOUT
  D:00D4H         SYMBOL        P0SKIP
  B:0080H.0       SYMBOL        P0_B0
  B:0080H.1       SYMBOL        P0_B1
  B:0080H.2       SYMBOL        P0_B2
  B:0080H.3       SYMBOL        P0_B3
  B:0080H.4       SYMBOL        P0_B4
  B:0080H.5       SYMBOL        P0_B5
  B:0080H.6       SYMBOL        P0_B6
  B:0080H.7       SYMBOL        P0_B7
  N:FFF0H         SYMBOL        P0_DIGITAL
  N:00FFH         SYMBOL        P0_INIT
  N:0000H         SYMBOL        P0_PUSHPULL
  N:00FFH         SYMBOL        P0_SKIP
  D:0090H         SYMBOL        P1
  D:00EEH         SYMBOL        P1MASK
  D:00EDH         SYMBOL        P1MAT
  D:00F2H         SYMBOL        P1MDIN
  D:00A5H         SYMBOL        P1MDOUT
  D:00D5H         SYMBOL        P1SKIP
  B:0090H.0       SYMBOL        P1_B0
  B:0090H.1       SYMBOL        P1_B1
  B:0090H.2       SYMBOL        P1_B2
  B:0090H.3       SYMBOL        P1_B3
  B:0090H.4       SYMBOL        P1_B4
  B:0090H.5       SYMBOL        P1_B5
  B:0090H.6       SYMBOL        P1_B6
  B:0090H.7       SYMBOL        P1_B7
  N:003FH         SYMBOL        P1_DIGITAL
  N:0000H         SYMBOL        P1_INIT
BL51 BANKED LINKER/LOCATER V6.22.2.0                                                  02/17/2021  22:51:27  PAGE 10


  N:003FH         SYMBOL        P1_PUSHPULL
  N:007FH         SYMBOL        P1_SKIP
  D:00A0H         SYMBOL        P2
  D:00FCH         SYMBOL        P2MASK
  D:00FBH         SYMBOL        P2MAT
  D:00F3H         SYMBOL        P2MDIN
  D:00A6H         SYMBOL        P2MDOUT
  D:00CCH         SYMBOL        P2SKIP
  B:00A0H.0       SYMBOL        P2_B0
  B:00A0H.1       SYMBOL        P2_B1
  B:00A0H.2       SYMBOL        P2_B2
  B:00A0H.3       SYMBOL        P2_B3
  N:0001H         SYMBOL        P2_PUSHPULL
  D:00B0H         SYMBOL        P3
  D:00F4H         SYMBOL        P3MDIN
  D:009CH         SYMBOL        P3MDOUT
  B:00B0H.0       SYMBOL        P3_B0
  B:00B0H.1       SYMBOL        P3_B1
  D:00F9H         SYMBOL        PCA0
  D:009EH         SYMBOL        PCA0CENT
  D:009CH         SYMBOL        PCA0CLR
  D:00D8H         SYMBOL        PCA0CN0
  B:00D8H.0       SYMBOL        PCA0CN0_CCF0
  B:00D8H.1       SYMBOL        PCA0CN0_CCF1
  B:00D8H.2       SYMBOL        PCA0CN0_CCF2
  B:00D8H.7       SYMBOL        PCA0CN0_CF
  B:00D8H.6       SYMBOL        PCA0CN0_CR
  D:00FBH         SYMBOL        PCA0CP0
  D:00E9H         SYMBOL        PCA0CP1
  D:00EBH         SYMBOL        PCA0CP2
  D:00FCH         SYMBOL        PCA0CPH0
  D:00EAH         SYMBOL        PCA0CPH1
  D:00ECH         SYMBOL        PCA0CPH2
  D:00FBH         SYMBOL        PCA0CPL0
  D:00E9H         SYMBOL        PCA0CPL1
  D:00EBH         SYMBOL        PCA0CPL2
  D:00DAH         SYMBOL        PCA0CPM0
  D:00DBH         SYMBOL        PCA0CPM1
  D:00DCH         SYMBOL        PCA0CPM2
  D:00FAH         SYMBOL        PCA0H
  D:00F9H         SYMBOL        PCA0L
  D:00D9H         SYMBOL        PCA0MD
  D:0096H         SYMBOL        PCA0POL
  D:00F7H         SYMBOL        PCA0PWM
  N:000BH         SYMBOL        PCA0_IRQN
  N:0000H         SYMBOL        PCA0_PAGE
  C:0546H         SYMBOL        PCA_INT
  C:0567H         SYMBOL        PCA_INT_EXIT
  D:0087H         SYMBOL        PCON0
  D:009AH         SYMBOL        PCON1
  D:00C1H         SYMBOL        PFE0CN
  N:0010H         SYMBOL        PG2_PAGE
  N:0020H         SYMBOL        PG3_PAGE
  I:009AH         SYMBOL        PGM_BEACON_DELAY
  I:0099H         SYMBOL        PGM_BEACON_STRENGTH
  I:0098H         SYMBOL        PGM_BEEP_STRENGTH
  N:0002H         SYMBOL        PGM_BIDIR
BL51 BANKED LINKER/LOCATER V6.22.2.0                                                  02/17/2021  22:51:27  PAGE 11


  N:0001H         SYMBOL        PGM_BIDIR_REV
  I:00A4H         SYMBOL        PGM_BRAKE_ON_STOP
  I:009EH         SYMBOL        PGM_CENTER_THROTTLE
  I:0092H         SYMBOL        PGM_COMM_TIMING
  I:009CH         SYMBOL        PGM_DEMAG_COMP
  I:0088H         SYMBOL        PGM_DIRECTION
  N:0000H         SYMBOL        PGM_DIR_REV
  I:00A1H         SYMBOL        PGM_ENABLE_POWER_PROT
  I:00A0H         SYMBOL        PGM_ENABLE_TEMP_PROT
  I:008CH         SYMBOL        PGM_ENABLE_TX_PROGRAM
  I:0089H         SYMBOL        PGM_INPUT_POL
  I:00A5H         SYMBOL        PGM_LED_CONTROL
  I:0097H         SYMBOL        PGM_MAX_THROTTLE
  I:0096H         SYMBOL        PGM_MIN_THROTTLE
  C:0DACH         SYMBOL        PGM_START
  I:0086H         SYMBOL        PGM_STARTUP_PWR
  I:00A6H         SYMBOL        PGM_STARTUP_PWR_DECODED
  N:0008H         SYMBOL        PMATCH_IRQN
  N:A001H         SYMBOL        POLYNOM
  D:0038H         SYMBOL        POWER_ON_WAIT_CNT_H
  D:0037H         SYMBOL        POWER_ON_WAIT_CNT_L
  D:0057H         SYMBOL        POWER_PWM_REG_H
  D:0056H         SYMBOL        POWER_PWM_REG_L
  D:0043H         SYMBOL        PREV_COMM_H
  D:0042H         SYMBOL        PREV_COMM_L
  D:0044H         SYMBOL        PREV_COMM_X
  D:0046H         SYMBOL        PREV_PREV_COMM_H
  D:0045H         SYMBOL        PREV_PREV_COMM_L
  C:1D0BH         SYMBOL        PRO3
  C:1D17H         SYMBOL        PRO4
  C:1D1DH         SYMBOL        PRO5
  C:1D32H         SYMBOL        PRO6
  C:1040H         SYMBOL        PROGRAM_BY_TX_CHECKED
  C:102AH         SYMBOL        PROGRAM_BY_TX_ENTRY_LIMIT
  C:1030H         SYMBOL        PROGRAM_BY_TX_ENTRY_STORE
  C:1037H         SYMBOL        PROGRAM_BY_TX_ENTRY_WAIT
  D:00F6H         SYMBOL        PRTDRV
  D:008FH         SYMBOL        PSCTL
  D:00D0H         SYMBOL        PSW
  B:00D0H.6       SYMBOL        PSW_AC
  B:00D0H.7       SYMBOL        PSW_CY
  B:00D0H.5       SYMBOL        PSW_F0
  B:00D0H.1       SYMBOL        PSW_F1
  B:00D0H.2       SYMBOL        PSW_OV
  B:00D0H.0       SYMBOL        PSW_PARITY
  B:00D0H.3       SYMBOL        PSW_RS0
  B:00D0H.4       SYMBOL        PSW_RS1
  C:1D58H         SYMBOL        PUT1
  C:1D6BH         SYMBOL        PUT2
  C:1D77H         SYMBOL        PUT3
  C:1D89H         SYMBOL        PUT4
  C:1D6EH         SYMBOL        PUTC
  C:1D52H         SYMBOL        PUTP
  C:1D4AH         SYMBOL        PUTW
  D:005BH         SYMBOL        PWM_LIMIT
  D:005DH         SYMBOL        PWM_LIMIT_BEG
  D:005CH         SYMBOL        PWM_LIMIT_BY_RPM
BL51 BANKED LINKER/LOCATER V6.22.2.0                                                  02/17/2021  22:51:27  PAGE 12


  N:0010H         SYMBOL        P_
  N:0011H         SYMBOL        Q_
  N:0005H         SYMBOL        RCP_DIR_REV
  N:0004H         SYMBOL        RCP_DSHOT
  N:0006H         SYMBOL        RCP_FULL_RANGE
  N:0005H         SYMBOL        RCP_IN
  N:0003H         SYMBOL        RCP_MULTISHOT
  N:0001H         SYMBOL        RCP_ONESHOT125
  N:0002H         SYMBOL        RCP_ONESHOT42
  D:0022H         SYMBOL        RCP_OUTSIDE_RANGE_CNT
  D:0055H         SYMBOL        RCP_STOP_CNT
  D:0023H         SYMBOL        RCP_TIMEOUT_CNTD
  N:0000H         SYMBOL        RCP_UPDATED
  C:1D3CH         SYMBOL        RD1
  C:143AH         SYMBOL        READ_ALL_EEPROM_PARAMETERS
  C:146AH         SYMBOL        READ_EEPROM_BLOCK1
  C:1477H         SYMBOL        READ_EEPROM_BLOCK2
  C:14BAH         SYMBOL        READ_EEPROM_BYTE
  C:1480H         SYMBOL        READ_EEPROM_EXIT
  C:1463H         SYMBOL        READ_EEPROM_READ
  C:1450H         SYMBOL        READ_EEPROM_STORE_DEFAULTS
  C:129BH         SYMBOL        READ_INITIAL_TEMP
  C:1506H         SYMBOL        READ_TAG
  C:14FDH         SYMBOL        READ_TAGS
  D:00D1H         SYMBOL        REF0CN
  D:00C9H         SYMBOL        REG0CN
  D:00C6H         SYMBOL        REG1CN
  C:19FDH         SYMBOL        RESET
  D:00B6H         SYMBOL        REVID
  C:1CC9H         SYMBOL        RST
  D:00EFH         SYMBOL        RSTSRC
  D:00F1H         SYMBOL        RTX_MDIN
  D:00A4H         SYMBOL        RTX_MDOUT
  N:0005H         SYMBOL        RTX_PIN
  D:0080H         SYMBOL        RTX_PORT
  D:00D4H         SYMBOL        RTX_SKIP
  C:12EEH         SYMBOL        RUN1
  C:12FAH         SYMBOL        RUN2
  C:1312H         SYMBOL        RUN3
  C:131EH         SYMBOL        RUN4
  C:132AH         SYMBOL        RUN5
  C:1336H         SYMBOL        RUN6
  C:13D1H         SYMBOL        RUN6_BRAKE_DONE
  C:13ADH         SYMBOL        RUN6_CHECK_DIR
  C:13BDH         SYMBOL        RUN6_CHECK_DIR_CHANGE
  C:13B8H         SYMBOL        RUN6_CHECK_DIR_REV
  C:13C7H         SYMBOL        RUN6_CHECK_SPEED
  C:13A9H         SYMBOL        RUN6_CHECK_TIMEOUT
  C:13F8H         SYMBOL        RUN_TO_WAIT_FOR_POWER_ON
  C:142EH         SYMBOL        RUN_TO_WAIT_FOR_POWER_ON_BRAKE_DONE
  C:13F0H         SYMBOL        RUN_TO_WAIT_FOR_POWER_ON_FAIL
  C:13FBH         SYMBOL        RUN_TO_WAIT_FOR_POWER_ON_STALL_DONE
  N:0012H         SYMBOL        R_
  D:0094H         SYMBOL        SBCON1
  D:0095H         SYMBOL        SBRL1
  D:0096H         SYMBOL        SBRLH1
  D:0095H         SYMBOL        SBRLL1
BL51 BANKED LINKER/LOCATER V6.22.2.0                                                  02/17/2021  22:51:27  PAGE 13


  D:0099H         SYMBOL        SBUF0
  D:0092H         SYMBOL        SBUF1
  C:0C14H         SYMBOL        SCALE_THROTTLE_CAL
  D:0098H         SYMBOL        SCON0
  B:0098H.5       SYMBOL        SCON0_MCE
  B:0098H.2       SYMBOL        SCON0_RB8
  B:0098H.4       SYMBOL        SCON0_REN
  B:0098H.0       SYMBOL        SCON0_RI
  B:0098H.7       SYMBOL        SCON0_SMODE
  B:0098H.3       SYMBOL        SCON0_TB8
  B:0098H.1       SYMBOL        SCON0_TI
  D:00C8H         SYMBOL        SCON1
  B:00C8H.7       SYMBOL        SCON1_OVR
  B:00C8H.6       SYMBOL        SCON1_PERR
  B:00C8H.2       SYMBOL        SCON1_RBX
  B:00C8H.4       SYMBOL        SCON1_REN
  B:00C8H.0       SYMBOL        SCON1_RI
  B:00C8H.3       SYMBOL        SCON1_TBX
  B:00C8H.1       SYMBOL        SCON1_TI
  C:1CD1H         SYMBOL        SET4
  C:1CD7H         SYMBOL        SET5
  C:1CDDH         SYMBOL        SET6
  C:1CCBH         SYMBOL        SETBUF
  C:09A8H         SYMBOL        SETUP_COMM_WAIT
  C:089AH         SYMBOL        SETUP_ZC_SCAN_TIMEOUT
  C:08B7H         SYMBOL        SETUP_ZC_SCAN_TIMEOUT_STARTUP_DONE
  C:0BA8H         SYMBOL        SET_DEFAULT_PARAMETERS
  C:05C7H         SYMBOL        SET_PWM_LIMIT_HIGH_RPM
  C:05D7H         SYMBOL        SET_PWM_LIMIT_HIGH_RPM_INC_LIMIT
  C:05D8H         SYMBOL        SET_PWM_LIMIT_HIGH_RPM_STORE
  C:0597H         SYMBOL        SET_PWM_LIMIT_LOW_RPM
  C:05C4H         SYMBOL        SET_PWM_LIMIT_LOW_RPM_EXIT
  C:0648H         SYMBOL        SET_STARTUP_PWM
  D:00A7H         SYMBOL        SFRPAGE
  D:00CFH         SYMBOL        SFRPGCN
  D:00D7H         SYMBOL        SFRSTACK
  N:00E8H         SYMBOL        SIGNATURE_001
  N:00B2H         SYMBOL        SIGNATURE_002
  D:0065H         SYMBOL        SKIP_T2_INT
  D:00D6H         SYMBOL        SMB0ADM
  D:00D7H         SYMBOL        SMB0ADR
  D:00C1H         SYMBOL        SMB0CF
  D:00C0H         SYMBOL        SMB0CN0
  B:00C0H.1       SYMBOL        SMB0CN0_ACK
  B:00C0H.3       SYMBOL        SMB0CN0_ACKRQ
  B:00C0H.2       SYMBOL        SMB0CN0_ARBLOST
  B:00C0H.7       SYMBOL        SMB0CN0_MASTER
  B:00C0H.0       SYMBOL        SMB0CN0_SI
  B:00C0H.5       SYMBOL        SMB0CN0_STA
  B:00C0H.4       SYMBOL        SMB0CN0_STO
  B:00C0H.6       SYMBOL        SMB0CN0_TXMODE
  D:00C2H         SYMBOL        SMB0DAT
  D:00C3H         SYMBOL        SMB0FCN0
  D:00C4H         SYMBOL        SMB0FCN1
  D:00EFH         SYMBOL        SMB0FCT
  D:00C5H         SYMBOL        SMB0RXLN
  D:00ACH         SYMBOL        SMB0TC
BL51 BANKED LINKER/LOCATER V6.22.2.0                                                  02/17/2021  22:51:27  PAGE 14


  N:0020H         SYMBOL        SMB0_PAGE
  N:0007H         SYMBOL        SMBUS0_IRQN
  D:0093H         SYMBOL        SMOD1
  D:0081H         SYMBOL        SP
  D:00A1H         SYMBOL        SPI0CFG
  D:00A2H         SYMBOL        SPI0CKR
  D:00F8H         SYMBOL        SPI0CN0
  B:00F8H.5       SYMBOL        SPI0CN0_MODF
  B:00F8H.2       SYMBOL        SPI0CN0_NSSMD0
  B:00F8H.3       SYMBOL        SPI0CN0_NSSMD1
  B:00F8H.4       SYMBOL        SPI0CN0_RXOVRN
  B:00F8H.0       SYMBOL        SPI0CN0_SPIEN
  B:00F8H.7       SYMBOL        SPI0CN0_SPIF
  B:00F8H.1       SYMBOL        SPI0CN0_TXNF
  B:00F8H.6       SYMBOL        SPI0CN0_WCOL
  D:00A3H         SYMBOL        SPI0DAT
  D:009AH         SYMBOL        SPI0FCN0
  D:009BH         SYMBOL        SPI0FCN1
  D:00F7H         SYMBOL        SPI0FCT
  N:0006H         SYMBOL        SPI0_IRQN
  N:0020H         SYMBOL        SPI0_PAGE
  D:003CH         SYMBOL        STALL_CNT
  D:0039H         SYMBOL        STARTUP_CNT
  N:0000H         SYMBOL        STARTUP_PHASE
  C:0080H         SYMBOL        STARTUP_POWER_TABLE
  D:003AH         SYMBOL        STARTUP_ZC_TIMEOUT_CNTD
  C:05DDH         SYMBOL        START_ADC_CONVERSION
  C:0839H         SYMBOL        STORE_TIMES_DECREASE
  C:088CH         SYMBOL        STORE_TIMES_DECREASE_FAST
  C:085AH         SYMBOL        STORE_TIMES_EXIT
  C:082AH         SYMBOL        STORE_TIMES_INCREASE
  C:0883H         SYMBOL        STORE_TIMES_INCREASE_FAST
  C:0824H         SYMBOL        STORE_TIMES_UP_OR_DOWN
  C:087DH         SYMBOL        STORE_TIMES_UP_OR_DOWN_FAST
  N:0030H         SYMBOL        SUCCESS
  C:1527H         SYMBOL        SUCCESS_BEEP
  C:1556H         SYMBOL        SUCCESS_BEEP_INVERTED
  C:0B98H         SYMBOL        SWITCH_POWER_OFF
  N:0013H         SYMBOL        S_
  C:008DH         SYMBOL        T0_INT
  C:023DH         SYMBOL        T1_DSHOT_INC_CMD_CNT
  C:0233H         SYMBOL        T1_DSHOT_SET_CMD
  C:0090H         SYMBOL        T1_INT
  C:0258H         SYMBOL        T1_INT_BIDIR_FWD
  C:025DH         SYMBOL        T1_INT_BIDIR_REV_CHK
  C:00F2H         SYMBOL        T1_INT_DECODE
  C:0178H         SYMBOL        T1_INT_DECODE_LSB
  C:00FDH         SYMBOL        T1_INT_DECODE_MSB
  C:02C8H         SYMBOL        T1_INT_FRAME_FAIL
  C:00CCH         SYMBOL        T1_INT_FRAME_TIME_SCALED
  C:016FH         SYMBOL        T1_INT_LSB_FAIL
  C:00F4H         SYMBOL        T1_INT_MSB_FAIL
  C:0269H         SYMBOL        T1_INT_NOT_BIDIR
  C:02A4H         SYMBOL        T1_INT_STARTUP_BOOSTED
  C:029AH         SYMBOL        T1_INT_STARTUP_BOOST_STALL
  C:0200H         SYMBOL        T1_INT_XOR_OK
  C:02B9H         SYMBOL        T1_INT_ZERO_RCP_CHECKED
BL51 BANKED LINKER/LOCATER V6.22.2.0                                                  02/17/2021  22:51:27  PAGE 15


  C:023FH         SYMBOL        T1_NORMAL_RANGE
  C:02D1H         SYMBOL        T2_INT
  C:0304H         SYMBOL        T2_INT_EXIT
  C:02F9H         SYMBOL        T2_INT_RCP_STOP
  C:02E6H         SYMBOL        T2_INT_START
  C:0309H         SYMBOL        T3_INT
  N:0000H         SYMBOL        T3_PENDING
  D:0088H         SYMBOL        TCON
  B:0088H.1       SYMBOL        TCON_IE0
  B:0088H.3       SYMBOL        TCON_IE1
  B:0088H.0       SYMBOL        TCON_IT0
  B:0088H.2       SYMBOL        TCON_IT1
  B:0088H.5       SYMBOL        TCON_TF0
  B:0088H.7       SYMBOL        TCON_TF1
  B:0088H.4       SYMBOL        TCON_TR0
  B:0088H.6       SYMBOL        TCON_TR1
  C:0610H         SYMBOL        TEMP_AVERAGE_DEC
  C:0613H         SYMBOL        TEMP_AVERAGE_INC
  C:0604H         SYMBOL        TEMP_AVERAGE_INC_DEC
  C:061AH         SYMBOL        TEMP_AVERAGE_UPDATED
  C:0618H         SYMBOL        TEMP_AVERAGE_UPDATED_LOAD_ACC
  C:063CH         SYMBOL        TEMP_CHECK_EXIT
  N:0031H         SYMBOL        TEMP_LIMIT
  N:0009H         SYMBOL        TEMP_LIMIT_STEP
  D:0069H         SYMBOL        TEMP_PROT_LIMIT
  I:00D0H         SYMBOL        TEMP_STORAGE
  C:0D3CH         SYMBOL        TEST_THROTTLE_GAIN
  C:0D49H         SYMBOL        TEST_THROTTLE_GAIN_MULT
  D:008CH         SYMBOL        TH0
  D:008DH         SYMBOL        TH1
  D:0060H         SYMBOL        THROTTLE_GAIN
  D:0062H         SYMBOL        THROTTLE_GAIN_BD_REV
  D:0063H         SYMBOL        THROTTLE_GAIN_BD_REV_M
  D:0061H         SYMBOL        THROTTLE_GAIN_M
  C:0FBDH         SYMBOL        THROTTLE_HIGH_CAL
  C:0FEDH         SYMBOL        THROTTLE_LOW_CAL
  C:0FEBH         SYMBOL        THROTTLE_LOW_CAL_START
  N:0001H         SYMBOL        TIMER0_IRQN
  D:0040H         SYMBOL        TIMER0_X
  N:0003H         SYMBOL        TIMER1_IRQN
  N:0005H         SYMBOL        TIMER2_IRQN
  N:0010H         SYMBOL        TIMER2_PAGE
  D:0041H         SYMBOL        TIMER2_X
  N:000EH         SYMBOL        TIMER3_IRQN
  N:0010H         SYMBOL        TIMER3_PAGE
  N:0013H         SYMBOL        TIMER4_IRQN
  N:0010H         SYMBOL        TIMER4_PAGE
  D:008AH         SYMBOL        TL0
  D:008BH         SYMBOL        TL1
  D:0089H         SYMBOL        TMOD
  D:00CCH         SYMBOL        TMR2
  D:00C8H         SYMBOL        TMR2CN0
  B:00C8H.3       SYMBOL        TMR2CN0_T2SPLIT
  B:00C8H.0       SYMBOL        TMR2CN0_T2XCLK0
  B:00C8H.1       SYMBOL        TMR2CN0_T2XCLK1
  B:00C8H.4       SYMBOL        TMR2CN0_TF2CEN
  B:00C8H.7       SYMBOL        TMR2CN0_TF2H
BL51 BANKED LINKER/LOCATER V6.22.2.0                                                  02/17/2021  22:51:27  PAGE 16


  B:00C8H.6       SYMBOL        TMR2CN0_TF2L
  B:00C8H.5       SYMBOL        TMR2CN0_TF2LEN
  B:00C8H.2       SYMBOL        TMR2CN0_TR2
  D:00FDH         SYMBOL        TMR2CN1
  D:00CDH         SYMBOL        TMR2H
  D:00CCH         SYMBOL        TMR2L
  D:00CAH         SYMBOL        TMR2RL
  D:00CBH         SYMBOL        TMR2RLH
  D:00CAH         SYMBOL        TMR2RLL
  D:0094H         SYMBOL        TMR3
  D:0091H         SYMBOL        TMR3CN0
  D:00FEH         SYMBOL        TMR3CN1
  D:0095H         SYMBOL        TMR3H
  D:0094H         SYMBOL        TMR3L
  D:0092H         SYMBOL        TMR3RL
  D:0093H         SYMBOL        TMR3RLH
  D:0092H         SYMBOL        TMR3RLL
  D:00A4H         SYMBOL        TMR4
  D:0098H         SYMBOL        TMR4CN0
  B:0098H.3       SYMBOL        TMR4CN0_T4SPLIT
  B:0098H.0       SYMBOL        TMR4CN0_T4XCLK0
  B:0098H.1       SYMBOL        TMR4CN0_T4XCLK1
  B:0098H.4       SYMBOL        TMR4CN0_TF4CEN
  B:0098H.7       SYMBOL        TMR4CN0_TF4H
  B:0098H.6       SYMBOL        TMR4CN0_TF4L
  B:0098H.5       SYMBOL        TMR4CN0_TF4LEN
  B:0098H.2       SYMBOL        TMR4CN0_TR4
  D:00FFH         SYMBOL        TMR4CN1
  D:00A5H         SYMBOL        TMR4H
  D:00A4H         SYMBOL        TMR4L
  D:00A2H         SYMBOL        TMR4RL
  D:00A3H         SYMBOL        TMR4RLH
  D:00A2H         SYMBOL        TMR4RLL
  N:0014H         SYMBOL        T_
  N:0004H         SYMBOL        UART0_IRQN
  N:0020H         SYMBOL        UART0_PAGE
  D:009DH         SYMBOL        UART1FCN0
  D:00D8H         SYMBOL        UART1FCN1
  B:00D8H.3       SYMBOL        UART1FCN1_RFRQ
  B:00D8H.0       SYMBOL        UART1FCN1_RIE
  B:00D8H.1       SYMBOL        UART1FCN1_RXTO0
  B:00D8H.2       SYMBOL        UART1FCN1_RXTO1
  B:00D8H.7       SYMBOL        UART1FCN1_TFRQ
  B:00D8H.4       SYMBOL        UART1FCN1_TIE
  B:00D8H.5       SYMBOL        UART1FCN1_TXHOLD
  B:00D8H.6       SYMBOL        UART1FCN1_TXNF
  D:00FAH         SYMBOL        UART1FCT
  D:009EH         SYMBOL        UART1LIN
  N:0011H         SYMBOL        UART1_IRQN
  N:0020H         SYMBOL        UART1_PAGE
  N:001AH         SYMBOL        UART_LOOP
  N:0015H         SYMBOL        U_
  C:0F7EH         SYMBOL        VALIDATE_RCP_START
  D:00FFH         SYMBOL        VDM0CN
  N:0016H         SYMBOL        V_
  C:1DE1H         SYMBOL        WAIT1
  C:0584H         SYMBOL        WAIT100MS
BL51 BANKED LINKER/LOCATER V6.22.2.0                                                  02/17/2021  22:51:27  PAGE 17


  C:057CH         SYMBOL        WAIT10MS
  C:0574H         SYMBOL        WAIT1MS
  C:151FH         SYMBOL        WAIT1S
  C:1521H         SYMBOL        WAIT1S_LOOP
  C:0588H         SYMBOL        WAIT200MS
  C:0580H         SYMBOL        WAIT30MS
  C:0578H         SYMBOL        WAIT3MS
  C:1DDBH         SYMBOL        WAITF
  C:1DDFH         SYMBOL        WAITH
  C:058EH         SYMBOL        WAITXMS_M
  C:058CH         SYMBOL        WAITXMS_O
  C:07C8H         SYMBOL        WAIT_ADVANCE_TIMING
  C:0892H         SYMBOL        WAIT_BEFORE_ZC_SCAN
  C:08D2H         SYMBOL        WAIT_BEFORE_ZC_SCAN_EXIT
  C:09E4H         SYMBOL        WAIT_FOR_COMM
  C:0A1BH         SYMBOL        WAIT_FOR_COMM_WAIT
  C:08E3H         SYMBOL        WAIT_FOR_COMP_OUT_HIGH
  C:08D3H         SYMBOL        WAIT_FOR_COMP_OUT_LOW
  C:08F1H         SYMBOL        WAIT_FOR_COMP_OUT_START
  C:1C48H         SYMBOL        WAIT_FOR_LOW
  C:1066H         SYMBOL        WAIT_FOR_POWER_ON
  C:106BH         SYMBOL        WAIT_FOR_POWER_ON_LOOP
  C:10CCH         SYMBOL        WAIT_FOR_POWER_ON_NONZERO
  C:10BBH         SYMBOL        WAIT_FOR_POWER_ON_NOT_MISSING
  C:10B1H         SYMBOL        WAIT_FOR_POWER_ON_NO_BEEP
  D:0097H         SYMBOL        WDTCN
  C:149FH         SYMBOL        WRITE_EEPROM_BLOCK1
  C:14ACH         SYMBOL        WRITE_EEPROM_BLOCK2
  C:14BEH         SYMBOL        WRITE_EEPROM_BYTE
  C:14BFH         SYMBOL        WRITE_EEPROM_BYTE_FROM_ACC
  C:14EEH         SYMBOL        WRITE_EEPROM_SIGNATURE
  C:1517H         SYMBOL        WRITE_TAG
  C:1510H         SYMBOL        WRITE_TAGS
  D:004BH         SYMBOL        WT_ADV_START_H
  D:004AH         SYMBOL        WT_ADV_START_L
  D:0051H         SYMBOL        WT_COMM_START_H
  D:0050H         SYMBOL        WT_COMM_START_L
  D:004DH         SYMBOL        WT_ZC_SCAN_START_H
  D:004CH         SYMBOL        WT_ZC_SCAN_START_L
  D:004FH         SYMBOL        WT_ZC_TOUT_START_H
  D:004EH         SYMBOL        WT_ZC_TOUT_START_L
  N:0017H         SYMBOL        W_
  D:00E1H         SYMBOL        XBR0
  D:00E2H         SYMBOL        XBR1
  D:00E3H         SYMBOL        XBR2
  N:7840H         SYMBOL        XTAL
  C:1A10H         SYMBOL        _EEP_MAIN_REARM_START
  C:1A20H         SYMBOL        _EEP_PGM_BEC_VOLTAGE_HIGH
  C:1A16H         SYMBOL        _EEP_PGM_DAMPING_FORCE
  C:1A25H         SYMBOL        _EEP_PGM_ENABLE_PWM_INPUT
  C:1A04H         SYMBOL        _EEP_PGM_GOV_I_GAIN
  C:1A05H         SYMBOL        _EEP_PGM_GOV_MODE
  C:1A03H         SYMBOL        _EEP_PGM_GOV_P_GAIN
  C:1A17H         SYMBOL        _EEP_PGM_GOV_RANGE
  C:1A11H         SYMBOL        _EEP_PGM_GOV_SETUP_TARGET
  C:1A0CH         SYMBOL        _EEP_PGM_INPUT_POL
  C:1A06H         SYMBOL        _EEP_PGM_LOW_VOLTAGE_LIM
BL51 BANKED LINKER/LOCATER V6.22.2.0                                                  02/17/2021  22:51:27  PAGE 18


  C:1A22H         SYMBOL        _EEP_PGM_MAIN_SPOOLUP_TIME
  C:1A07H         SYMBOL        _EEP_PGM_MOTOR_GAIN
  C:1A08H         SYMBOL        _EEP_PGM_MOTOR_IDLE
  C:1A26H         SYMBOL        _EEP_PGM_PWM_DITHER
  C:1A0AH         SYMBOL        _EEP_PGM_PWM_FREQ
  C:1A13H         SYMBOL        _EEP_PGM_STARTUP_ACCEL
  C:1A18H         SYMBOL        _EEP_PGM_STARTUP_METHOD
  C:1A12H         SYMBOL        _EEP_PGM_STARTUP_RPM
  C:1A1EH         SYMBOL        _EEP_PGM_THROTTLE_RATE
  C:1A14H         SYMBOL        _EEP_PGM_VOLT_COMP
  I:009DH         SYMBOL        _PGM_BEC_VOLTAGE_HIGH
  I:0093H         SYMBOL        _PGM_DAMPING_FORCE
  I:00A2H         SYMBOL        _PGM_ENABLE_PWM_INPUT
  I:0081H         SYMBOL        _PGM_GOV_I_GAIN
  I:0082H         SYMBOL        _PGM_GOV_MODE
  I:0080H         SYMBOL        _PGM_GOV_P_GAIN
  I:0094H         SYMBOL        _PGM_GOV_RANGE
  I:008EH         SYMBOL        _PGM_GOV_SETUP_TARGET
  I:0083H         SYMBOL        _PGM_LOW_VOLTAGE_LIM
  I:008DH         SYMBOL        _PGM_MAIN_REARM_START
  I:009FH         SYMBOL        _PGM_MAIN_SPOOLUP_TIME
  I:0084H         SYMBOL        _PGM_MOTOR_GAIN
  I:0085H         SYMBOL        _PGM_MOTOR_IDLE
  I:00A3H         SYMBOL        _PGM_PWM_DITHER
  I:0087H         SYMBOL        _PGM_PWM_FREQ
  I:0090H         SYMBOL        _PGM_STARTUP_ACCEL
  I:0095H         SYMBOL        _PGM_STARTUP_METHOD
  I:008FH         SYMBOL        _PGM_STARTUP_RPM
  I:009BH         SYMBOL        _PGM_THROTTLE_RATE
  I:0091H         SYMBOL        _PGM_VOLT_COMP
  C:0000H         LINE#         554
  C:0003H         LINE#         554
  C:000BH         LINE#         554
  C:0013H         LINE#         554
  C:001BH         LINE#         554
  C:002BH         LINE#         554
  C:005BH         LINE#         554
  C:0073H         LINE#         554
  C:008DH         LINE#         572
  C:008FH         LINE#         573
  C:0090H         LINE#         585
  C:0092H         LINE#         586
  C:0094H         LINE#         587
  C:0097H         LINE#         588
  C:0099H         LINE#         589
  C:009CH         LINE#         590
  C:009EH         LINE#         591
  C:00A0H         LINE#         592
  C:00A2H         LINE#         593
  C:00A4H         LINE#         594
  C:00A6H         LINE#         595
  C:00A8H         LINE#         596
  C:00AAH         LINE#         597
  C:00ACH         LINE#         598
  C:00AEH         LINE#         600
  C:00B1H         LINE#         602
  C:00B2H         LINE#         603
BL51 BANKED LINKER/LOCATER V6.22.2.0                                                  02/17/2021  22:51:27  PAGE 19


  C:00B3H         LINE#         604
  C:00B5H         LINE#         605
  C:00B6H         LINE#         606
  C:00B7H         LINE#         607
  C:00B9H         LINE#         608
  C:00BAH         LINE#         610
  C:00BBH         LINE#         611
  C:00BCH         LINE#         612
  C:00BDH         LINE#         613
  C:00BEH         LINE#         614
  C:00BFH         LINE#         615
  C:00C0H         LINE#         616
  C:00C1H         LINE#         617
  C:00C3H         LINE#         618
  C:00C5H         LINE#         620
  C:00C6H         LINE#         621
  C:00C7H         LINE#         622
  C:00C8H         LINE#         623
  C:00C9H         LINE#         624
  C:00CAH         LINE#         625
  C:00CBH         LINE#         626
  C:00CCH         LINE#         629
  C:00CDH         LINE#         630
  C:00CFH         LINE#         631
  C:00D0H         LINE#         632
  C:00D2H         LINE#         633
  C:00D4H         LINE#         634
  C:00D6H         LINE#         635
  C:00D8H         LINE#         638
  C:00DAH         LINE#         639
  C:00DDH         LINE#         642
  C:00DFH         LINE#         643
  C:00E1H         LINE#         644
  C:00E3H         LINE#         645
  C:00E5H         LINE#         646
  C:00E8H         LINE#         647
  C:00EAH         LINE#         648
  C:00ECH         LINE#         649
  C:00EEH         LINE#         651
  C:00EFH         LINE#         652
  C:00F0H         LINE#         653
  C:00F1H         LINE#         654
  C:00F2H         LINE#         657
  C:00F4H         LINE#         660
  C:00F7H         LINE#         661
  C:00F9H         LINE#         662
  C:00FBH         LINE#         663
  C:00FDH         LINE#         667
  C:00FEH         LINE#         667
  C:00FFH         LINE#         667
  C:0100H         LINE#         667
  C:0101H         LINE#         667
  C:0102H         LINE#         667
  C:0103H         LINE#         667
  C:0105H         LINE#         667
  C:0106H         LINE#         667
  C:0107H         LINE#         667
BL51 BANKED LINKER/LOCATER V6.22.2.0                                                  02/17/2021  22:51:27  PAGE 20


  C:0108H         LINE#         667
  C:0109H         LINE#         667
  C:010BH         LINE#         667
  C:010CH         LINE#         667
  C:010DH         LINE#         667
  C:010EH         LINE#         667
  C:010FH         LINE#         667
  C:0110H         LINE#         667
  C:0111H         LINE#         667
  C:0113H         LINE#         667
  C:0114H         LINE#         667
  C:0115H         LINE#         667
  C:0116H         LINE#         667
  C:0117H         LINE#         667
  C:0119H         LINE#         668
  C:011AH         LINE#         668
  C:011BH         LINE#         668
  C:011CH         LINE#         668
  C:011DH         LINE#         668
  C:011EH         LINE#         668
  C:011FH         LINE#         668
  C:0121H         LINE#         668
  C:0122H         LINE#         668
  C:0123H         LINE#         668
  C:0124H         LINE#         668
  C:0125H         LINE#         668
  C:0127H         LINE#         668
  C:0128H         LINE#         668
  C:0129H         LINE#         668
  C:012AH         LINE#         668
  C:012BH         LINE#         668
  C:012CH         LINE#         668
  C:012DH         LINE#         668
  C:012FH         LINE#         668
  C:0130H         LINE#         668
  C:0131H         LINE#         668
  C:0132H         LINE#         668
  C:0133H         LINE#         668
  C:0135H         LINE#         669
  C:0136H         LINE#         669
  C:0137H         LINE#         669
  C:0138H         LINE#         669
  C:0139H         LINE#         669
  C:013AH         LINE#         669
  C:013BH         LINE#         669
  C:013DH         LINE#         669
  C:013EH         LINE#         669
  C:013FH         LINE#         669
  C:0140H         LINE#         669
  C:0141H         LINE#         669
  C:0143H         LINE#         669
  C:0144H         LINE#         669
  C:0145H         LINE#         669
  C:0146H         LINE#         669
  C:0147H         LINE#         669
  C:0148H         LINE#         669
  C:0149H         LINE#         669
BL51 BANKED LINKER/LOCATER V6.22.2.0                                                  02/17/2021  22:51:27  PAGE 21


  C:014BH         LINE#         669
  C:014CH         LINE#         669
  C:014DH         LINE#         669
  C:014EH         LINE#         669
  C:014FH         LINE#         669
  C:0151H         LINE#         670
  C:0152H         LINE#         670
  C:0153H         LINE#         670
  C:0154H         LINE#         670
  C:0155H         LINE#         670
  C:0156H         LINE#         670
  C:0157H         LINE#         670
  C:0159H         LINE#         670
  C:015AH         LINE#         670
  C:015BH         LINE#         670
  C:015CH         LINE#         670
  C:015DH         LINE#         670
  C:015FH         LINE#         670
  C:0160H         LINE#         670
  C:0161H         LINE#         670
  C:0162H         LINE#         670
  C:0163H         LINE#         670
  C:0164H         LINE#         670
  C:0165H         LINE#         670
  C:0167H         LINE#         670
  C:0168H         LINE#         670
  C:0169H         LINE#         670
  C:016AH         LINE#         670
  C:016BH         LINE#         670
  C:016DH         LINE#         671
  C:016FH         LINE#         674
  C:0172H         LINE#         675
  C:0174H         LINE#         676
  C:0176H         LINE#         677
  C:0178H         LINE#         681
  C:0179H         LINE#         681
  C:017AH         LINE#         681
  C:017BH         LINE#         681
  C:017CH         LINE#         681
  C:017DH         LINE#         681
  C:017EH         LINE#         681
  C:0180H         LINE#         681
  C:0181H         LINE#         681
  C:0182H         LINE#         681
  C:0183H         LINE#         681
  C:0184H         LINE#         681
  C:0186H         LINE#         681
  C:0187H         LINE#         681
  C:0188H         LINE#         681
  C:0189H         LINE#         681
  C:018AH         LINE#         681
  C:018BH         LINE#         681
  C:018CH         LINE#         681
  C:018EH         LINE#         681
  C:018FH         LINE#         681
  C:0190H         LINE#         681
  C:0191H         LINE#         681
BL51 BANKED LINKER/LOCATER V6.22.2.0                                                  02/17/2021  22:51:27  PAGE 22


  C:0192H         LINE#         681
  C:0194H         LINE#         682
  C:0195H         LINE#         682
  C:0196H         LINE#         682
  C:0197H         LINE#         682
  C:0198H         LINE#         682
  C:0199H         LINE#         682
  C:019AH         LINE#         682
  C:019CH         LINE#         682
  C:019DH         LINE#         682
  C:019EH         LINE#         682
  C:019FH         LINE#         682
  C:01A0H         LINE#         682
  C:01A2H         LINE#         682
  C:01A3H         LINE#         682
  C:01A4H         LINE#         682
  C:01A5H         LINE#         682
  C:01A6H         LINE#         682
  C:01A7H         LINE#         682
  C:01A8H         LINE#         682
  C:01AAH         LINE#         682
  C:01ABH         LINE#         682
  C:01ACH         LINE#         682
  C:01ADH         LINE#         682
  C:01AEH         LINE#         682
  C:01B0H         LINE#         683
  C:01B1H         LINE#         683
  C:01B2H         LINE#         683
  C:01B3H         LINE#         683
  C:01B4H         LINE#         683
  C:01B5H         LINE#         683
  C:01B6H         LINE#         683
  C:01B8H         LINE#         683
  C:01B9H         LINE#         683
  C:01BAH         LINE#         683
  C:01BBH         LINE#         683
  C:01BCH         LINE#         683
  C:01BEH         LINE#         683
  C:01BFH         LINE#         683
  C:01C0H         LINE#         683
  C:01C1H         LINE#         683
  C:01C2H         LINE#         683
  C:01C3H         LINE#         683
  C:01C4H         LINE#         683
  C:01C6H         LINE#         683
  C:01C7H         LINE#         683
  C:01C8H         LINE#         683
  C:01C9H         LINE#         683
  C:01CAH         LINE#         683
  C:01CCH         LINE#         684
  C:01CDH         LINE#         684
  C:01CEH         LINE#         684
  C:01CFH         LINE#         684
  C:01D0H         LINE#         684
  C:01D1H         LINE#         684
  C:01D2H         LINE#         684
  C:01D4H         LINE#         684
BL51 BANKED LINKER/LOCATER V6.22.2.0                                                  02/17/2021  22:51:27  PAGE 23


  C:01D5H         LINE#         684
  C:01D6H         LINE#         684
  C:01D7H         LINE#         684
  C:01D8H         LINE#         684
  C:01DAH         LINE#         684
  C:01DBH         LINE#         684
  C:01DCH         LINE#         684
  C:01DDH         LINE#         684
  C:01DEH         LINE#         684
  C:01DFH         LINE#         684
  C:01E0H         LINE#         684
  C:01E2H         LINE#         684
  C:01E3H         LINE#         684
  C:01E4H         LINE#         684
  C:01E5H         LINE#         684
  C:01E6H         LINE#         684
  C:01E8H         LINE#         686
  C:01E9H         LINE#         687
  C:01EAH         LINE#         688
  C:01EBH         LINE#         689
  C:01ECH         LINE#         690
  C:01EEH         LINE#         691
  C:01EFH         LINE#         692
  C:01F0H         LINE#         693
  C:01F1H         LINE#         694
  C:01F3H         LINE#         695
  C:01F4H         LINE#         696
  C:01F5H         LINE#         697
  C:01F7H         LINE#         699
  C:01FAH         LINE#         700
  C:01FCH         LINE#         701
  C:01FEH         LINE#         702
  C:0200H         LINE#         706
  C:0201H         LINE#         707
  C:0202H         LINE#         708
  C:0203H         LINE#         709
  C:0205H         LINE#         710
  C:0206H         LINE#         711
  C:0207H         LINE#         712
  C:0208H         LINE#         713
  C:0209H         LINE#         714
  C:020BH         LINE#         715
  C:020CH         LINE#         716
  C:020DH         LINE#         717
  C:020EH         LINE#         718
  C:020FH         LINE#         719
  C:0210H         LINE#         720
  C:0212H         LINE#         721
  C:0213H         LINE#         723
  C:0214H         LINE#         724
  C:0215H         LINE#         725
  C:0216H         LINE#         726
  C:0218H         LINE#         727
  C:0219H         LINE#         728
  C:021AH         LINE#         729
  C:021CH         LINE#         730
  C:021DH         LINE#         731
BL51 BANKED LINKER/LOCATER V6.22.2.0                                                  02/17/2021  22:51:27  PAGE 24


  C:021FH         LINE#         733
  C:0220H         LINE#         734
  C:0221H         LINE#         735
  C:0223H         LINE#         736
  C:0225H         LINE#         737
  C:0227H         LINE#         738
  C:0229H         LINE#         740
  C:022AH         LINE#         741
  C:022BH         LINE#         742
  C:022DH         LINE#         744
  C:022EH         LINE#         745
  C:022FH         LINE#         746
  C:0231H         LINE#         747
  C:0233H         LINE#         750
  C:0234H         LINE#         751
  C:0236H         LINE#         752
  C:0239H         LINE#         753
  C:023BH         LINE#         754
  C:023DH         LINE#         757
  C:023FH         LINE#         761
  C:0242H         LINE#         764
  C:0243H         LINE#         765
  C:0244H         LINE#         766
  C:0246H         LINE#         767
  C:0247H         LINE#         768
  C:0248H         LINE#         769
  C:024AH         LINE#         770
  C:024BH         LINE#         771
  C:024DH         LINE#         773
  C:024EH         LINE#         774
  C:024FH         LINE#         775
  C:0250H         LINE#         776
  C:0251H         LINE#         777
  C:0254H         LINE#         779
  C:0256H         LINE#         780
  C:0258H         LINE#         783
  C:025BH         LINE#         785
  C:025DH         LINE#         788
  C:0260H         LINE#         790
  C:0262H         LINE#         792
  C:0263H         LINE#         793
  C:0264H         LINE#         794
  C:0265H         LINE#         795
  C:0266H         LINE#         796
  C:0267H         LINE#         797
  C:0268H         LINE#         798
  C:0269H         LINE#         801
  C:026AH         LINE#         802
  C:026BH         LINE#         803
  C:026CH         LINE#         804
  C:026DH         LINE#         805
  C:026EH         LINE#         807
  C:026FH         LINE#         808
  C:0270H         LINE#         809
  C:0271H         LINE#         810
  C:0272H         LINE#         811
  C:0273H         LINE#         812
BL51 BANKED LINKER/LOCATER V6.22.2.0                                                  02/17/2021  22:51:27  PAGE 25


  C:0274H         LINE#         813
  C:0275H         LINE#         815
  C:0276H         LINE#         816
  C:0277H         LINE#         817
  C:0278H         LINE#         818
  C:0279H         LINE#         819
  C:027BH         LINE#         820
  C:027CH         LINE#         821
  C:027FH         LINE#         823
  C:0281H         LINE#         824
  C:0283H         LINE#         827
  C:0285H         LINE#         828
  C:0287H         LINE#         829
  C:0289H         LINE#         831
  C:028CH         LINE#         833
  C:028EH         LINE#         834
  C:028FH         LINE#         835
  C:0290H         LINE#         836
  C:0291H         LINE#         837
  C:0293H         LINE#         839
  C:0294H         LINE#         840
  C:0295H         LINE#         841
  C:0296H         LINE#         842
  C:0298H         LINE#         844
  C:0299H         LINE#         845
  C:029AH         LINE#         848
  C:029CH         LINE#         849
  C:029DH         LINE#         850
  C:029EH         LINE#         851
  C:029FH         LINE#         852
  C:02A0H         LINE#         853
  C:02A1H         LINE#         854
  C:02A3H         LINE#         855
  C:02A4H         LINE#         859
  C:02A5H         LINE#         860
  C:02A6H         LINE#         861
  C:02A7H         LINE#         862
  C:02A8H         LINE#         863
  C:02AAH         LINE#         864
  C:02ABH         LINE#         865
  C:02ACH         LINE#         866
  C:02ADH         LINE#         867
  C:02AEH         LINE#         868
  C:02B0H         LINE#         869
  C:02B1H         LINE#         870
  C:02B2H         LINE#         871
  C:02B4H         LINE#         873
  C:02B5H         LINE#         874
  C:02B7H         LINE#         876
  C:02B9H         LINE#         889
  C:02BCH         LINE#         890
  C:02BEH         LINE#         891
  C:02C0H         LINE#         893
  C:02C2H         LINE#         894
  C:02C4H         LINE#         896
  C:02C6H         LINE#         898
  C:02C8H         LINE#         901
BL51 BANKED LINKER/LOCATER V6.22.2.0                                                  02/17/2021  22:51:27  PAGE 26


  C:02CBH         LINE#         902
  C:02CDH         LINE#         903
  C:02CFH         LINE#         904
  C:02D1H         LINE#         916
  C:02D3H         LINE#         917
  C:02D5H         LINE#         918
  C:02D7H         LINE#         919
  C:02D9H         LINE#         921
  C:02DBH         LINE#         922
  C:02DDH         LINE#         925
  C:02DFH         LINE#         926
  C:02E1H         LINE#         928
  C:02E4H         LINE#         929
  C:02E6H         LINE#         932
  C:02E9H         LINE#         935
  C:02EBH         LINE#         936
  C:02EDH         LINE#         938
  C:02EFH         LINE#         941
  C:02F0H         LINE#         942
  C:02F2H         LINE#         943
  C:02F4H         LINE#         946
  C:02F7H         LINE#         947
  C:02F9H         LINE#         951
  C:02FBH         LINE#         952
  C:02FDH         LINE#         953
  C:02FFH         LINE#         954
  C:0301H         LINE#         956
  C:0304H         LINE#         959
  C:0306H         LINE#         960
  C:0308H         LINE#         961
  C:0309H         LINE#         974
  C:030BH         LINE#         975
  C:030EH         LINE#         976
  C:0311H         LINE#         977
  C:0314H         LINE#         978
  C:0316H         LINE#         979
  C:0319H         LINE#         980
  C:031BH         LINE#         981
  C:031CH         LINE#         992
  C:031EH         LINE#         993
  C:0320H         LINE#         995
  C:0323H         LINE#         997
  C:0326H         LINE#         998
  C:0327H         LINE#         999
  C:0328H         LINE#         1000
  C:032AH         LINE#         1001
  C:032BH         LINE#         1005
  C:032DH         LINE#         1006
  C:032FH         LINE#         1007
  C:0332H         LINE#         1008
  C:0334H         LINE#         1009
  C:0336H         LINE#         1010
  C:0338H         LINE#         1011
  C:033AH         LINE#         1012
  C:033CH         LINE#         1014
  C:033FH         LINE#         1014
  C:0341H         LINE#         1014
BL51 BANKED LINKER/LOCATER V6.22.2.0                                                  02/17/2021  22:51:27  PAGE 27


  C:0343H         LINE#         1014
  C:0345H         LINE#         1014
  C:0348H         LINE#         1014
  C:0349H         LINE#         1014
  C:034CH         LINE#         1014
  C:034FH         LINE#         1014
  C:0352H         LINE#         1014
  C:0355H         LINE#         1014
  C:0357H         LINE#         1014
  C:0359H         LINE#         1014
  C:035AH         LINE#         1014
  C:035BH         LINE#         1014
  C:035CH         LINE#         1014
  C:035DH         LINE#         1014
  C:035EH         LINE#         1014
  C:035FH         LINE#         1014
  C:0360H         LINE#         1014
  C:0361H         LINE#         1014
  C:0362H         LINE#         1014
  C:0363H         LINE#         1016
  C:0366H         LINE#         1019
  C:0367H         LINE#         1020
  C:0368H         LINE#         1021
  C:036AH         LINE#         1022
  C:036BH         LINE#         1023
  C:036CH         LINE#         1024
  C:036DH         LINE#         1025
  C:036FH         LINE#         1026
  C:0370H         LINE#         1027
  C:0371H         LINE#         1028
  C:0372H         LINE#         1029
  C:0373H         LINE#         1030
  C:0374H         LINE#         1031
  C:0375H         LINE#         1032
  C:0376H         LINE#         1033
  C:0377H         LINE#         1034
  C:0378H         LINE#         1035
  C:0379H         LINE#         1036
  C:037AH         LINE#         1037
  C:037BH         LINE#         1038
  C:037CH         LINE#         1039
  C:037DH         LINE#         1040
  C:037EH         LINE#         1041
  C:037FH         LINE#         1042
  C:0380H         LINE#         1046
  C:0382H         LINE#         1048
  C:0383H         LINE#         1049
  C:0385H         LINE#         1052
  C:0388H         LINE#         1055
  C:0389H         LINE#         1056
  C:038AH         LINE#         1057
  C:038BH         LINE#         1058
  C:038CH         LINE#         1059
  C:038DH         LINE#         1060
  C:038EH         LINE#         1061
  C:038FH         LINE#         1062
  C:0390H         LINE#         1063
BL51 BANKED LINKER/LOCATER V6.22.2.0                                                  02/17/2021  22:51:27  PAGE 28


  C:0391H         LINE#         1064
  C:0392H         LINE#         1065
  C:0394H         LINE#         1066
  C:0395H         LINE#         1067
  C:0397H         LINE#         1070
  C:039AH         LINE#         1073
  C:039BH         LINE#         1074
  C:039EH         LINE#         1075
  C:039FH         LINE#         1076
  C:03A1H         LINE#         1077
  C:03A2H         LINE#         1078
  C:03A5H         LINE#         1079
  C:03A6H         LINE#         1080
  C:03A7H         LINE#         1081
  C:03A8H         LINE#         1082
  C:03AAH         LINE#         1083
  C:03ACH         LINE#         1084
  C:03ADH         LINE#         1085
  C:03AFH         LINE#         1090
  C:03B0H         LINE#         1091
  C:03B1H         LINE#         1092
  C:03B2H         LINE#         1093
  C:03B3H         LINE#         1094
  C:03B4H         LINE#         1095
  C:03B5H         LINE#         1096
  C:03B6H         LINE#         1097
  C:03B7H         LINE#         1098
  C:03B8H         LINE#         1099
  C:03B9H         LINE#         1101
  C:03BAH         LINE#         1105
  C:03BDH         LINE#         1107
  C:03BEH         LINE#         1108
  C:03C0H         LINE#         1109
  C:03C1H         LINE#         1113
  C:03C4H         LINE#         1115
  C:03C5H         LINE#         1116
  C:03C6H         LINE#         1117
  C:03C7H         LINE#         1118
  C:03C9H         LINE#         1119
  C:03CBH         LINE#         1120
  C:03CCH         LINE#         1121
  C:03CDH         LINE#         1122
  C:03CEH         LINE#         1123
  C:03CFH         LINE#         1124
  C:03D0H         LINE#         1125
  C:03D1H         LINE#         1126
  C:03D2H         LINE#         1127
  C:03D3H         LINE#         1128
  C:03D4H         LINE#         1129
  C:03D5H         LINE#         1130
  C:03D6H         LINE#         1131
  C:03D7H         LINE#         1132
  C:03D8H         LINE#         1136
  C:03D9H         LINE#         1137
  C:03DAH         LINE#         1141
  C:03DCH         LINE#         1143
  C:03DEH         LINE#         1146
BL51 BANKED LINKER/LOCATER V6.22.2.0                                                  02/17/2021  22:51:27  PAGE 29


  C:03DFH         LINE#         1147
  C:03E0H         LINE#         1151
  C:03E2H         LINE#         1153
  C:03E3H         LINE#         1157
  C:03E5H         LINE#         1159
  C:03E7H         LINE#         1162
  C:03E9H         LINE#         1163
  C:03EBH         LINE#         1164
  C:03EDH         LINE#         1166
  C:03EFH         LINE#         1168
  C:03F0H         LINE#         1169
  C:03F2H         LINE#         1170
  C:03F4H         LINE#         1171
  C:03F6H         LINE#         1172
  C:03F8H         LINE#         1174
  C:03FBH         LINE#         1175
  C:03FDH         LINE#         1179
  C:03FFH         LINE#         1180
  C:0401H         LINE#         1182
  C:0403H         LINE#         1185
  C:0406H         LINE#         1187
  C:0408H         LINE#         1191
  C:040AH         LINE#         1193
  C:040CH         LINE#         1196
  C:040EH         LINE#         1197
  C:0410H         LINE#         1198
  C:0413H         LINE#         1200
  C:0415H         LINE#         1201
  C:0417H         LINE#         1204
  C:0418H         LINE#         1205
  C:0419H         LINE#         1206
  C:041AH         LINE#         1207
  C:041BH         LINE#         1208
  C:041CH         LINE#         1209
  C:041DH         LINE#         1210
  C:041EH         LINE#         1211
  C:0420H         LINE#         1212
  C:0422H         LINE#         1213
  C:0424H         LINE#         1214
  C:0427H         LINE#         1216
  C:0429H         LINE#         1218
  C:042CH         LINE#         1220
  C:042EH         LINE#         1221
  C:0430H         LINE#         1224
  C:0433H         LINE#         1226
  C:0435H         LINE#         1229
  C:0438H         LINE#         1231
  C:043AH         LINE#         1232
  C:043CH         LINE#         1234
  C:043FH         LINE#         1236
  C:0441H         LINE#         1238
  C:0442H         LINE#         1239
  C:0443H         LINE#         1240
  C:0444H         LINE#         1241
  C:0445H         LINE#         1242
  C:0446H         LINE#         1243
  C:0447H         LINE#         1244
BL51 BANKED LINKER/LOCATER V6.22.2.0                                                  02/17/2021  22:51:27  PAGE 30


  C:0448H         LINE#         1245
  C:044AH         LINE#         1246
  C:044CH         LINE#         1248
  C:044DH         LINE#         1249
  C:044EH         LINE#         1250
  C:0450H         LINE#         1251
  C:0451H         LINE#         1252
  C:0452H         LINE#         1253
  C:0453H         LINE#         1254
  C:0455H         LINE#         1255
  C:0456H         LINE#         1258
  C:0457H         LINE#         1259
  C:0458H         LINE#         1263
  C:045AH         LINE#         1265
  C:045BH         LINE#         1266
  C:045CH         LINE#         1267
  C:045EH         LINE#         1268
  C:045FH         LINE#         1269
  C:0461H         LINE#         1271
  C:0463H         LINE#         1272
  C:0465H         LINE#         1273
  C:0467H         LINE#         1274
  C:0469H         LINE#         1277
  C:046BH         LINE#         1278
  C:046DH         LINE#         1281
  C:046FH         LINE#         1282
  C:0471H         LINE#         1283
  C:0473H         LINE#         1284
  C:0475H         LINE#         1288
  C:0477H         LINE#         1289
  C:0479H         LINE#         1290
  C:047BH         LINE#         1292
  C:047EH         LINE#         1294
  C:0480H         LINE#         1296
  C:0481H         LINE#         1298
  C:0482H         LINE#         1299
  C:0483H         LINE#         1300
  C:0485H         LINE#         1302
  C:0486H         LINE#         1303
  C:0487H         LINE#         1304
  C:0488H         LINE#         1305
  C:048AH         LINE#         1307
  C:048BH         LINE#         1308
  C:048CH         LINE#         1311
  C:048EH         LINE#         1312
  C:048FH         LINE#         1314
  C:0490H         LINE#         1316
  C:0491H         LINE#         1317
  C:0492H         LINE#         1318
  C:0493H         LINE#         1319
  C:0495H         LINE#         1320
  C:0496H         LINE#         1323
  C:0497H         LINE#         1324
  C:0499H         LINE#         1325
  C:049AH         LINE#         1326
  C:049BH         LINE#         1327
  C:049DH         LINE#         1328
BL51 BANKED LINKER/LOCATER V6.22.2.0                                                  02/17/2021  22:51:27  PAGE 31


  C:049EH         LINE#         1329
  C:04A0H         LINE#         1330
  C:04A1H         LINE#         1331
  C:04A2H         LINE#         1332
  C:04A3H         LINE#         1333
  C:04A5H         LINE#         1334
  C:04A7H         LINE#         1335
  C:04A8H         LINE#         1336
  C:04A9H         LINE#         1337
  C:04AAH         LINE#         1338
  C:04ABH         LINE#         1339
  C:04ACH         LINE#         1340
  C:04ADH         LINE#         1341
  C:04AEH         LINE#         1342
  C:04AFH         LINE#         1344
  C:04B0H         LINE#         1345
  C:04B1H         LINE#         1346
  C:04B2H         LINE#         1347
  C:04B3H         LINE#         1348
  C:04B4H         LINE#         1349
  C:04B5H         LINE#         1350
  C:04B6H         LINE#         1352
  C:04B7H         LINE#         1354
  C:04B8H         LINE#         1355
  C:04B9H         LINE#         1356
  C:04BBH         LINE#         1358
  C:04BCH         LINE#         1359
  C:04BDH         LINE#         1360
  C:04BEH         LINE#         1361
  C:04BFH         LINE#         1364
  C:04C0H         LINE#         1365
  C:04C1H         LINE#         1366
  C:04C2H         LINE#         1367
  C:04C3H         LINE#         1368
  C:04C4H         LINE#         1369
  C:04C5H         LINE#         1370
  C:04C6H         LINE#         1371
  C:04C7H         LINE#         1372
  C:04C8H         LINE#         1373
  C:04CAH         LINE#         1375
  C:04CBH         LINE#         1379
  C:04CEH         LINE#         1382
  C:04D0H         LINE#         1383
  C:04D2H         LINE#         1387
  C:04D4H         LINE#         1391
  C:04D6H         LINE#         1392
  C:04D8H         LINE#         1394
  C:04D9H         LINE#         1395
  C:04DBH         LINE#         1397
  C:04DEH         LINE#         1400
  C:04DFH         LINE#         1401
  C:04E1H         LINE#         1402
  C:04E2H         LINE#         1403
  C:04E4H         LINE#         1404
  C:04E6H         LINE#         1406
  C:04E8H         LINE#         1409
  C:04E9H         LINE#         1410
BL51 BANKED LINKER/LOCATER V6.22.2.0                                                  02/17/2021  22:51:27  PAGE 32


  C:04EAH         LINE#         1411
  C:04ECH         LINE#         1412
  C:04EEH         LINE#         1414
  C:04EFH         LINE#         1418
  C:04F2H         LINE#         1420
  C:04F3H         LINE#         1421
  C:04F4H         LINE#         1422
  C:04F6H         LINE#         1425
  C:04F7H         LINE#         1426
  C:04F8H         LINE#         1427
  C:04F9H         LINE#         1428
  C:04FAH         LINE#         1429
  C:04FBH         LINE#         1433
  C:04FDH         LINE#         1435
  C:04FEH         LINE#         1455
  C:0500H         LINE#         1456
  C:0502H         LINE#         1461
  C:0505H         LINE#         1471
  C:0507H         LINE#         1475
  C:050AH         LINE#         1478
  C:050CH         LINE#         1479
  C:050EH         LINE#         1480
  C:0510H         LINE#         1481
  C:0513H         LINE#         1482
  C:0516H         LINE#         1483
  C:0519H         LINE#         1484
  C:051AH         LINE#         1487
  C:051CH         LINE#         1488
  C:051EH         LINE#         1489
  C:0520H         LINE#         1490
  C:0523H         LINE#         1491
  C:0526H         LINE#         1492
  C:0529H         LINE#         1493
  C:052AH         LINE#         1497
  C:052DH         LINE#         1499
  C:052FH         LINE#         1500
  C:0531H         LINE#         1501
  C:0533H         LINE#         1502
  C:0536H         LINE#         1503
  C:0537H         LINE#         1514
  C:0539H         LINE#         1515
  C:053BH         LINE#         1516
  C:053DH         LINE#         1517
  C:0540H         LINE#         1518
  C:0543H         LINE#         1519
  C:0545H         LINE#         1520
  C:0546H         LINE#         1531
  C:0548H         LINE#         1532
  C:054AH         LINE#         1533
  C:054CH         LINE#         1534
  C:054EH         LINE#         1572
  C:0551H         LINE#         1572
  C:0554H         LINE#         1573
  C:0557H         LINE#         1574
  C:055AH         LINE#         1575
  C:055DH         LINE#         1580
  C:055FH         LINE#         1581
BL51 BANKED LINKER/LOCATER V6.22.2.0                                                  02/17/2021  22:51:27  PAGE 33


  C:0562H         LINE#         1582
  C:0564H         LINE#         1583
  C:0567H         LINE#         1585
  C:056AH         LINE#         1587
  C:056DH         LINE#         1589
  C:056FH         LINE#         1590
  C:0571H         LINE#         1591
  C:0573H         LINE#         1592
  C:0574H         LINE#         1603
  C:0576H         LINE#         1604
  C:0578H         LINE#         1607
  C:057AH         LINE#         1608
  C:057CH         LINE#         1611
  C:057EH         LINE#         1612
  C:0580H         LINE#         1615
  C:0582H         LINE#         1616
  C:0584H         LINE#         1619
  C:0586H         LINE#         1620
  C:0588H         LINE#         1623
  C:058AH         LINE#         1624
  C:058CH         LINE#         1627
  C:058EH         LINE#         1629
  C:058FH         LINE#         1630
  C:0592H         LINE#         1631
  C:0594H         LINE#         1632
  C:0596H         LINE#         1633
  C:0597H         LINE#         1646
  C:0599H         LINE#         1647
  C:059CH         LINE#         1649
  C:059EH         LINE#         1650
  C:059FH         LINE#         1651
  C:05A1H         LINE#         1653
  C:05A3H         LINE#         1654
  C:05A5H         LINE#         1656
  C:05A7H         LINE#         1657
  C:05AAH         LINE#         1658
  C:05ABH         LINE#         1659
  C:05AEH         LINE#         1660
  C:05B1H         LINE#         1661
  C:05B4H         LINE#         1662
  C:05B5H         LINE#         1663
  C:05B6H         LINE#         1664
  C:05B8H         LINE#         1665
  C:05BAH         LINE#         1667
  C:05BCH         LINE#         1669
  C:05BDH         LINE#         1670
  C:05BEH         LINE#         1671
  C:05C0H         LINE#         1672
  C:05C2H         LINE#         1674
  C:05C4H         LINE#         1677
  C:05C6H         LINE#         1678
  C:05C7H         LINE#         1692
  C:05C8H         LINE#         1693
  C:05CAH         LINE#         1694
  C:05CCH         LINE#         1695
  C:05CEH         LINE#         1696
  C:05D0H         LINE#         1704
BL51 BANKED LINKER/LOCATER V6.22.2.0                                                  02/17/2021  22:51:27  PAGE 34


  C:05D2H         LINE#         1705
  C:05D4H         LINE#         1707
  C:05D5H         LINE#         1708
  C:05D7H         LINE#         1711
  C:05D8H         LINE#         1713
  C:05DAH         LINE#         1715
  C:05DCH         LINE#         1717
  C:05DDH         LINE#         1731
  C:05E0H         LINE#         1732
  C:05E1H         LINE#         1745
  C:05E3H         LINE#         1746
  C:05E4H         LINE#         1747
  C:05E6H         LINE#         1748
  C:05E8H         LINE#         1749
  C:05EAH         LINE#         1752
  C:05EDH         LINE#         1754
  C:05EFH         LINE#         1754
  C:05F1H         LINE#         1758
  C:05F4H         LINE#         1759
  C:05F5H         LINE#         1760
  C:05F6H         LINE#         1761
  C:05F8H         LINE#         1762
  C:05F9H         LINE#         1763
  C:05FBH         LINE#         1765
  C:05FCH         LINE#         1766
  C:05FEH         LINE#         1768
  C:0600H         LINE#         1769
  C:0602H         LINE#         1770
  C:0604H         LINE#         1773
  C:0605H         LINE#         1774
  C:0606H         LINE#         1775
  C:0608H         LINE#         1776
  C:060AH         LINE#         1778
  C:060CH         LINE#         1779
  C:060EH         LINE#         1781
  C:0610H         LINE#         1783
  C:0611H         LINE#         1784
  C:0613H         LINE#         1787
  C:0614H         LINE#         1788
  C:0616H         LINE#         1789
  C:0618H         LINE#         1792
  C:061AH         LINE#         1794
  C:061CH         LINE#         1795
  C:061DH         LINE#         1796
  C:061FH         LINE#         1797
  C:0621H         LINE#         1799
  C:0624H         LINE#         1801
  C:0625H         LINE#         1802
  C:0627H         LINE#         1803
  C:0629H         LINE#         1805
  C:062CH         LINE#         1807
  C:062DH         LINE#         1808
  C:062FH         LINE#         1809
  C:0631H         LINE#         1811
  C:0634H         LINE#         1813
  C:0635H         LINE#         1814
  C:0637H         LINE#         1815
BL51 BANKED LINKER/LOCATER V6.22.2.0                                                  02/17/2021  22:51:27  PAGE 35


  C:0639H         LINE#         1817
  C:063CH         LINE#         1820
  C:063DH         LINE#         1824
  C:063FH         LINE#         1825
  C:0641H         LINE#         1826
  C:0643H         LINE#         1828
  C:0645H         LINE#         1830
  C:0647H         LINE#         1831
  C:0648H         LINE#         1845
  C:064AH         LINE#         1846
  C:064CH         LINE#         1847
  C:064EH         LINE#         1848
  C:064FH         LINE#         1849
  C:0651H         LINE#         1850
  C:0653H         LINE#         1851
  C:0654H         LINE#         1852
  C:0656H         LINE#         1853
  C:0657H         LINE#         1866
  C:065AH         LINE#         1867
  C:065DH         LINE#         1868
  C:065EH         LINE#         1886
  C:0660H         LINE#         1887
  C:0662H         LINE#         1888
  C:0664H         LINE#         1889
  C:0666H         LINE#         1890
  C:0668H         LINE#         1891
  C:066BH         LINE#         1892
  C:066CH         LINE#         1893
  C:066EH         LINE#         1894
  C:0670H         LINE#         1896
  C:0671H         LINE#         1897
  C:0672H         LINE#         1898
  C:0673H         LINE#         1899
  C:0674H         LINE#         1900
  C:0675H         LINE#         1901
  C:0676H         LINE#         1902
  C:0677H         LINE#         1903
  C:0678H         LINE#         1904
  C:0679H         LINE#         1905
  C:067AH         LINE#         1908
  C:067CH         LINE#         1909
  C:067EH         LINE#         1910
  C:0680H         LINE#         1911
  C:0682H         LINE#         1912
  C:0683H         LINE#         1913
  C:0684H         LINE#         1914
  C:0685H         LINE#         1915
  C:0686H         LINE#         1916
  C:0687H         LINE#         1917
  C:0688H         LINE#         1918
  C:068BH         LINE#         1921
  C:068DH         LINE#         1923
  C:068EH         LINE#         1924
  C:0691H         LINE#         1925
  C:0693H         LINE#         1927
  C:0695H         LINE#         1930
  C:0697H         LINE#         1931
BL51 BANKED LINKER/LOCATER V6.22.2.0                                                  02/17/2021  22:51:27  PAGE 36


  C:0699H         LINE#         1932
  C:069AH         LINE#         1933
  C:069BH         LINE#         1934
  C:069CH         LINE#         1936
  C:069EH         LINE#         1938
  C:069FH         LINE#         1939
  C:06A1H         LINE#         1941
  C:06A3H         LINE#         1942
  C:06A5H         LINE#         1943
  C:06A7H         LINE#         1946
  C:06A9H         LINE#         1947
  C:06ABH         LINE#         1948
  C:06ADH         LINE#         1949
  C:06AFH         LINE#         1950
  C:06B1H         LINE#         1951
  C:06B3H         LINE#         1952
  C:06B4H         LINE#         1953
  C:06B5H         LINE#         1955
  C:06B6H         LINE#         1956
  C:06B7H         LINE#         1957
  C:06B8H         LINE#         1958
  C:06B9H         LINE#         1959
  C:06BAH         LINE#         1962
  C:06BBH         LINE#         1963
  C:06BDH         LINE#         1964
  C:06BEH         LINE#         1965
  C:06BFH         LINE#         1966
  C:06C1H         LINE#         1967
  C:06C2H         LINE#         1968
  C:06C3H         LINE#         1969
  C:06C4H         LINE#         1970
  C:06C5H         LINE#         1971
  C:06C7H         LINE#         1972
  C:06C8H         LINE#         1973
  C:06C9H         LINE#         1974
  C:06CBH         LINE#         1975
  C:06CDH         LINE#         1977
  C:06D0H         LINE#         1978
  C:06D3H         LINE#         1980
  C:06D5H         LINE#         1984
  C:06D7H         LINE#         1985
  C:06D9H         LINE#         1986
  C:06DBH         LINE#         1987
  C:06DDH         LINE#         1988
  C:06DFH         LINE#         1989
  C:06E1H         LINE#         1990
  C:06E2H         LINE#         1991
  C:06E3H         LINE#         1992
  C:06E5H         LINE#         1993
  C:06E7H         LINE#         1995
  C:06E8H         LINE#         1996
  C:06E9H         LINE#         1998
  C:06EAH         LINE#         1999
  C:06EBH         LINE#         2000
  C:06EDH         LINE#         2001
  C:06EFH         LINE#         2003
  C:06F2H         LINE#         2005
BL51 BANKED LINKER/LOCATER V6.22.2.0                                                  02/17/2021  22:51:27  PAGE 37


  C:06F3H         LINE#         2006
  C:06F4H         LINE#         2009
  C:06F5H         LINE#         2010
  C:06F6H         LINE#         2011
  C:06F7H         LINE#         2012
  C:06F8H         LINE#         2013
  C:06F9H         LINE#         2014
  C:06FAH         LINE#         2015
  C:06FBH         LINE#         2016
  C:06FDH         LINE#         2018
  C:06FEH         LINE#         2019
  C:06FFH         LINE#         2020
  C:0700H         LINE#         2021
  C:0701H         LINE#         2022
  C:0702H         LINE#         2023
  C:0703H         LINE#         2024
  C:0704H         LINE#         2025
  C:0705H         LINE#         2026
  C:0707H         LINE#         2029
  C:0708H         LINE#         2030
  C:0709H         LINE#         2031
  C:070AH         LINE#         2032
  C:070BH         LINE#         2033
  C:070CH         LINE#         2034
  C:070DH         LINE#         2035
  C:070EH         LINE#         2036
  C:0710H         LINE#         2039
  C:0711H         LINE#         2040
  C:0712H         LINE#         2041
  C:0713H         LINE#         2042
  C:0714H         LINE#         2043
  C:0715H         LINE#         2044
  C:0716H         LINE#         2045
  C:0718H         LINE#         2046
  C:071AH         LINE#         2047
  C:071CH         LINE#         2049
  C:071EH         LINE#         2050
  C:0720H         LINE#         2051
  C:0722H         LINE#         2055
  C:0723H         LINE#         2056
  C:0724H         LINE#         2057
  C:0726H         LINE#         2058
  C:0728H         LINE#         2060
  C:072AH         LINE#         2063
  C:072DH         LINE#         2065
  C:072FH         LINE#         2066
  C:0731H         LINE#         2069
  C:0733H         LINE#         2070
  C:0734H         LINE#         2071
  C:0735H         LINE#         2072
  C:0736H         LINE#         2073
  C:0738H         LINE#         2074
  C:073AH         LINE#         2075
  C:073CH         LINE#         2077
  C:073DH         LINE#         2079
  C:073EH         LINE#         2080
  C:0740H         LINE#         2081
BL51 BANKED LINKER/LOCATER V6.22.2.0                                                  02/17/2021  22:51:27  PAGE 38


  C:0742H         LINE#         2082
  C:0744H         LINE#         2084
  C:0745H         LINE#         2086
  C:0746H         LINE#         2087
  C:0747H         LINE#         2088
  C:0749H         LINE#         2089
  C:074BH         LINE#         2091
  C:074DH         LINE#         2095
  C:074FH         LINE#         2097
  C:0751H         LINE#         2098
  C:0752H         LINE#         2099
  C:0754H         LINE#         2100
  C:0755H         LINE#         2101
  C:0757H         LINE#         2102
  C:0758H         LINE#         2103
  C:075AH         LINE#         2104
  C:075BH         LINE#         2105
  C:075DH         LINE#         2106
  C:075EH         LINE#         2107
  C:0760H         LINE#         2108
  C:0761H         LINE#         2109
  C:0762H         LINE#         2111
  C:0763H         LINE#         2112
  C:0764H         LINE#         2113
  C:0765H         LINE#         2114
  C:0766H         LINE#         2115
  C:0767H         LINE#         2116
  C:0769H         LINE#         2117
  C:076AH         LINE#         2118
  C:076CH         LINE#         2120
  C:076DH         LINE#         2121
  C:076EH         LINE#         2122
  C:0770H         LINE#         2123
  C:0771H         LINE#         2124
  C:0773H         LINE#         2125
  C:0775H         LINE#         2128
  C:0777H         LINE#         2129
  C:0778H         LINE#         2130
  C:0779H         LINE#         2133
  C:077CH         LINE#         2139
  C:077EH         LINE#         2140
  C:0780H         LINE#         2141
  C:0781H         LINE#         2142
  C:0782H         LINE#         2143
  C:0783H         LINE#         2144
  C:0784H         LINE#         2145
  C:0785H         LINE#         2146
  C:0787H         LINE#         2147
  C:0788H         LINE#         2148
  C:0789H         LINE#         2149
  C:078AH         LINE#         2150
  C:078BH         LINE#         2151
  C:078CH         LINE#         2152
  C:078DH         LINE#         2153
  C:078EH         LINE#         2154
  C:0790H         LINE#         2155
  C:0791H         LINE#         2156
BL51 BANKED LINKER/LOCATER V6.22.2.0                                                  02/17/2021  22:51:27  PAGE 39


  C:0792H         LINE#         2157
  C:0793H         LINE#         2158
  C:0794H         LINE#         2159
  C:0795H         LINE#         2160
  C:0796H         LINE#         2161
  C:0797H         LINE#         2162
  C:0798H         LINE#         2163
  C:0799H         LINE#         2164
  C:079AH         LINE#         2165
  C:079BH         LINE#         2166
  C:079DH         LINE#         2167
  C:079EH         LINE#         2168
  C:07A0H         LINE#         2169
  C:07A2H         LINE#         2170
  C:07A3H         LINE#         2171
  C:07A4H         LINE#         2172
  C:07A6H         LINE#         2173
  C:07A8H         LINE#         2175
  C:07AAH         LINE#         2178
  C:07ACH         LINE#         2179
  C:07ADH         LINE#         2180
  C:07AEH         LINE#         2181
  C:07AFH         LINE#         2182
  C:07B1H         LINE#         2183
  C:07B2H         LINE#         2184
  C:07B3H         LINE#         2185
  C:07B5H         LINE#         2186
  C:07B6H         LINE#         2187
  C:07B7H         LINE#         2188
  C:07B8H         LINE#         2189
  C:07B9H         LINE#         2190
  C:07BAH         LINE#         2191
  C:07BBH         LINE#         2192
  C:07BDH         LINE#         2194
  C:07BEH         LINE#         2195
  C:07C0H         LINE#         2196
  C:07C2H         LINE#         2199
  C:07C4H         LINE#         2202
  C:07C6H         LINE#         2203
  C:07C7H         LINE#         2204
  C:07C8H         LINE#         2218
  C:07CBH         LINE#         2219
  C:07CDH         LINE#         2222
  C:07D0H         LINE#         2223
  C:07D3H         LINE#         2224
  C:07D5H         LINE#         2225
  C:07D8H         LINE#         2238
  C:07D9H         LINE#         2239
  C:07DAH         LINE#         2240
  C:07DBH         LINE#         2241
  C:07DCH         LINE#         2242
  C:07DDH         LINE#         2243
  C:07DEH         LINE#         2244
  C:07DFH         LINE#         2246
  C:07E0H         LINE#         2247
  C:07E1H         LINE#         2248
  C:07E2H         LINE#         2249
BL51 BANKED LINKER/LOCATER V6.22.2.0                                                  02/17/2021  22:51:27  PAGE 40


  C:07E3H         LINE#         2250
  C:07E4H         LINE#         2251
  C:07E5H         LINE#         2252
  C:07E6H         LINE#         2254
  C:07E9H         LINE#         2255
  C:07ECH         LINE#         2257
  C:07EDH         LINE#         2258
  C:07EEH         LINE#         2259
  C:07EFH         LINE#         2260
  C:07F0H         LINE#         2261
  C:07F1H         LINE#         2262
  C:07F2H         LINE#         2263
  C:07F3H         LINE#         2264
  C:07F4H         LINE#         2265
  C:07F5H         LINE#         2266
  C:07F6H         LINE#         2267
  C:07F7H         LINE#         2268
  C:07F9H         LINE#         2269
  C:07FBH         LINE#         2270
  C:07FCH         LINE#         2271
  C:07FDH         LINE#         2272
  C:07FFH         LINE#         2273
  C:0801H         LINE#         2275
  C:0802H         LINE#         2276
  C:0805H         LINE#         2278
  C:0806H         LINE#         2279
  C:0807H         LINE#         2280
  C:0808H         LINE#         2281
  C:0809H         LINE#         2282
  C:080AH         LINE#         2283
  C:080BH         LINE#         2284
  C:080CH         LINE#         2285
  C:080DH         LINE#         2286
  C:080EH         LINE#         2287
  C:080FH         LINE#         2288
  C:0811H         LINE#         2291
  C:0812H         LINE#         2292
  C:0813H         LINE#         2293
  C:0814H         LINE#         2294
  C:0815H         LINE#         2295
  C:0816H         LINE#         2296
  C:0817H         LINE#         2297
  C:0818H         LINE#         2298
  C:0819H         LINE#         2299
  C:081BH         LINE#         2300
  C:081CH         LINE#         2301
  C:081DH         LINE#         2302
  C:081FH         LINE#         2303
  C:0820H         LINE#         2304
  C:0822H         LINE#         2305
  C:0824H         LINE#         2308
  C:0825H         LINE#         2309
  C:0826H         LINE#         2310
  C:0828H         LINE#         2311
  C:082AH         LINE#         2314
  C:082CH         LINE#         2315
  C:082EH         LINE#         2316
BL51 BANKED LINKER/LOCATER V6.22.2.0                                                  02/17/2021  22:51:27  PAGE 41


  C:0830H         LINE#         2317
  C:0832H         LINE#         2318
  C:0834H         LINE#         2319
  C:0836H         LINE#         2320
  C:0839H         LINE#         2323
  C:083BH         LINE#         2324
  C:083DH         LINE#         2325
  C:083FH         LINE#         2326
  C:0841H         LINE#         2327
  C:0843H         LINE#         2328
  C:0845H         LINE#         2329
  C:0848H         LINE#         2331
  C:084BH         LINE#         2332
  C:084EH         LINE#         2333
  C:0851H         LINE#         2334
  C:0854H         LINE#         2335
  C:0857H         LINE#         2336
  C:085AH         LINE#         2339
  C:085DH         LINE#         2343
  C:085EH         LINE#         2344
  C:085FH         LINE#         2345
  C:0860H         LINE#         2346
  C:0861H         LINE#         2347
  C:0862H         LINE#         2348
  C:0863H         LINE#         2349
  C:0865H         LINE#         2350
  C:0866H         LINE#         2351
  C:0867H         LINE#         2352
  C:0869H         LINE#         2353
  C:086BH         LINE#         2355
  C:086CH         LINE#         2356
  C:086FH         LINE#         2358
  C:0870H         LINE#         2359
  C:0871H         LINE#         2360
  C:0872H         LINE#         2361
  C:0873H         LINE#         2362
  C:0874H         LINE#         2363
  C:0876H         LINE#         2366
  C:0877H         LINE#         2367
  C:0878H         LINE#         2368
  C:087AH         LINE#         2369
  C:087BH         LINE#         2370
  C:087DH         LINE#         2373
  C:087EH         LINE#         2374
  C:087FH         LINE#         2375
  C:0881H         LINE#         2376
  C:0883H         LINE#         2379
  C:0885H         LINE#         2380
  C:0887H         LINE#         2381
  C:0889H         LINE#         2382
  C:088CH         LINE#         2385
  C:088EH         LINE#         2386
  C:0890H         LINE#         2387
  C:0892H         LINE#         2401
  C:0895H         LINE#         2402
  C:0897H         LINE#         2404
  C:089AH         LINE#         2406
BL51 BANKED LINKER/LOCATER V6.22.2.0                                                  02/17/2021  22:51:27  PAGE 42


  C:089CH         LINE#         2407
  C:089FH         LINE#         2408
  C:08A1H         LINE#         2409
  C:08A3H         LINE#         2410
  C:08A5H         LINE#         2412
  C:08A7H         LINE#         2413
  C:08A9H         LINE#         2414
  C:08AAH         LINE#         2415
  C:08ABH         LINE#         2416
  C:08ACH         LINE#         2417
  C:08ADH         LINE#         2418
  C:08AEH         LINE#         2419
  C:08AFH         LINE#         2420
  C:08B0H         LINE#         2430
  C:08B3H         LINE#         2432
  C:08B4H         LINE#         2433
  C:08B6H         LINE#         2434
  C:08B7H         LINE#         2437
  C:08B9H         LINE#         2438
  C:08BCH         LINE#         2439
  C:08BFH         LINE#         2440
  C:08C0H         LINE#         2441
  C:08C1H         LINE#         2442
  C:08C2H         LINE#         2443
  C:08C4H         LINE#         2444
  C:08C5H         LINE#         2445
  C:08C6H         LINE#         2446
  C:08C8H         LINE#         2447
  C:08CBH         LINE#         2448
  C:08CDH         LINE#         2449
  C:08D0H         LINE#         2450
  C:08D2H         LINE#         2453
  C:08D3H         LINE#         2467
  C:08D5H         LINE#         2468
  C:08D8H         LINE#         2469
  C:08DBH         LINE#         2470
  C:08DEH         LINE#         2471
  C:08E1H         LINE#         2472
  C:08E3H         LINE#         2475
  C:08E5H         LINE#         2476
  C:08E8H         LINE#         2477
  C:08EBH         LINE#         2478
  C:08EEH         LINE#         2479
  C:08F1H         LINE#         2483
  C:08F3H         LINE#         2484
  C:08F5H         LINE#         2485
  C:08F8H         LINE#         2487
  C:08FAH         LINE#         2488
  C:08FCH         LINE#         2489
  C:08FEH         LINE#         2491
  C:0900H         LINE#         2493
  C:0902H         LINE#         2494
  C:0904H         LINE#         2495
  C:0905H         LINE#         2496
  C:0906H         LINE#         2497
  C:0908H         LINE#         2498
  C:0909H         LINE#         2499
BL51 BANKED LINKER/LOCATER V6.22.2.0                                                  02/17/2021  22:51:27  PAGE 43


  C:090AH         LINE#         2500
  C:090BH         LINE#         2501
  C:090DH         LINE#         2502
  C:090FH         LINE#         2504
  C:0911H         LINE#         2506
  C:0914H         LINE#         2508
  C:0916H         LINE#         2509
  C:0918H         LINE#         2513
  C:0919H         LINE#         2514
  C:091AH         LINE#         2515
  C:091BH         LINE#         2516
  C:091CH         LINE#         2517
  C:091DH         LINE#         2518
  C:091EH         LINE#         2519
  C:091FH         LINE#         2520
  C:0920H         LINE#         2523
  C:0923H         LINE#         2525
  C:0925H         LINE#         2526
  C:0927H         LINE#         2528
  C:092AH         LINE#         2530
  C:092DH         LINE#         2533
  C:092FH         LINE#         2534
  C:0931H         LINE#         2537
  C:0933H         LINE#         2539
  C:0935H         LINE#         2540
  C:0937H         LINE#         2541
  C:0939H         LINE#         2542
  C:093BH         LINE#         2543
  C:093EH         LINE#         2544
  C:0940H         LINE#         2547
  C:0943H         LINE#         2549
  C:0944H         LINE#         2550
  C:0945H         LINE#         2551
  C:0946H         LINE#         2552
  C:0947H         LINE#         2553
  C:0949H         LINE#         2554
  C:094AH         LINE#         2556
  C:094CH         LINE#         2559
  C:094FH         LINE#         2561
  C:0950H         LINE#         2562
  C:0951H         LINE#         2563
  C:0952H         LINE#         2564
  C:0953H         LINE#         2565
  C:0955H         LINE#         2566
  C:0957H         LINE#         2568
  C:0959H         LINE#         2571
  C:095BH         LINE#         2572
  C:095EH         LINE#         2573
  C:0961H         LINE#         2574
  C:0964H         LINE#         2576
  C:0967H         LINE#         2578
  C:096AH         LINE#         2583
  C:096DH         LINE#         2584
  C:096FH         LINE#         2585
  C:0972H         LINE#         2586
  C:0975H         LINE#         2589
  C:0977H         LINE#         2590
BL51 BANKED LINKER/LOCATER V6.22.2.0                                                  02/17/2021  22:51:27  PAGE 44


  C:0979H         LINE#         2592
  C:097AH         LINE#         2593
  C:097BH         LINE#         2594
  C:097DH         LINE#         2597
  C:097EH         LINE#         2598
  C:097FH         LINE#         2599
  C:0981H         LINE#         2601
  C:0982H         LINE#         2602
  C:0983H         LINE#         2603
  C:0985H         LINE#         2605
  C:0986H         LINE#         2608
  C:0987H         LINE#         2609
  C:0988H         LINE#         2610
  C:0989H         LINE#         2611
  C:098CH         LINE#         2612
  C:098EH         LINE#         2613
  C:0990H         LINE#         2616
  C:0992H         LINE#         2617
  C:0993H         LINE#         2618
  C:0995H         LINE#         2619
  C:0997H         LINE#         2620
  C:0999H         LINE#         2621
  C:099BH         LINE#         2623
  C:099EH         LINE#         2624
  C:09A0H         LINE#         2626
  C:09A2H         LINE#         2627
  C:09A4H         LINE#         2630
  C:09A6H         LINE#         2632
  C:09A8H         LINE#         2645
  C:09AAH         LINE#         2646
  C:09ADH         LINE#         2647
  C:09B0H         LINE#         2648
  C:09B3H         LINE#         2649
  C:09B6H         LINE#         2650
  C:09B9H         LINE#         2652
  C:09BCH         LINE#         2653
  C:09BFH         LINE#         2654
  C:09C1H         LINE#         2655
  C:09C4H         LINE#         2656
  C:09C6H         LINE#         2669
  C:09C8H         LINE#         2670
  C:09CAH         LINE#         2671
  C:09CCH         LINE#         2673
  C:09CFH         LINE#         2674
  C:09D1H         LINE#         2675
  C:09D3H         LINE#         2678
  C:09D6H         LINE#         2679
  C:09D9H         LINE#         2680
  C:09DCH         LINE#         2681
  C:09DEH         LINE#         2682
  C:09E0H         LINE#         2683
  C:09E3H         LINE#         2686
  C:09E4H         LINE#         2700
  C:09E6H         LINE#         2701
  C:09E9H         LINE#         2703
  C:09EBH         LINE#         2705
  C:09EDH         LINE#         2706
BL51 BANKED LINKER/LOCATER V6.22.2.0                                                  02/17/2021  22:51:27  PAGE 45


  C:09F0H         LINE#         2707
  C:09F1H         LINE#         2708
  C:09F2H         LINE#         2709
  C:09F4H         LINE#         2710
  C:09F5H         LINE#         2711
  C:09F7H         LINE#         2712
  C:09F8H         LINE#         2713
  C:09FAH         LINE#         2714
  C:09FBH         LINE#         2715
  C:09FDH         LINE#         2716
  C:09FEH         LINE#         2717
  C:0A00H         LINE#         2718
  C:0A01H         LINE#         2719
  C:0A03H         LINE#         2720
  C:0A04H         LINE#         2721
  C:0A06H         LINE#         2722
  C:0A08H         LINE#         2724
  C:0A0BH         LINE#         2726
  C:0A0CH         LINE#         2727
  C:0A0EH         LINE#         2728
  C:0A10H         LINE#         2729
  C:0A12H         LINE#         2731
  C:0A14H         LINE#         2731
  C:0A16H         LINE#         2731
  C:0A18H         LINE#         2732
  C:0A1BH         LINE#         2735
  C:0A1EH         LINE#         2736
  C:0A20H         LINE#         2739
  C:0A23H         LINE#         2740
  C:0A26H         LINE#         2741
  C:0A28H         LINE#         2742
  C:0A2BH         LINE#         2743
  C:0A2CH         LINE#         2758
  C:0A2FH         LINE#         2760
  C:0A31H         LINE#         2761
  C:0A33H         LINE#         2762
  C:0A35H         LINE#         2762
  C:0A37H         LINE#         2763
  C:0A39H         LINE#         2763
  C:0A3CH         LINE#         2764
  C:0A3EH         LINE#         2765
  C:0A41H         LINE#         2766
  C:0A43H         LINE#         2769
  C:0A45H         LINE#         2770
  C:0A47H         LINE#         2771
  C:0A49H         LINE#         2771
  C:0A4BH         LINE#         2772
  C:0A4DH         LINE#         2772
  C:0A50H         LINE#         2773
  C:0A52H         LINE#         2774
  C:0A55H         LINE#         2775
  C:0A57H         LINE#         2781
  C:0A5AH         LINE#         2783
  C:0A5CH         LINE#         2784
  C:0A5EH         LINE#         2785
  C:0A60H         LINE#         2785
  C:0A63H         LINE#         2786
BL51 BANKED LINKER/LOCATER V6.22.2.0                                                  02/17/2021  22:51:27  PAGE 46


  C:0A65H         LINE#         2786
  C:0A67H         LINE#         2787
  C:0A69H         LINE#         2788
  C:0A6CH         LINE#         2789
  C:0A6EH         LINE#         2792
  C:0A70H         LINE#         2793
  C:0A72H         LINE#         2794
  C:0A74H         LINE#         2794
  C:0A77H         LINE#         2795
  C:0A79H         LINE#         2795
  C:0A7BH         LINE#         2796
  C:0A7DH         LINE#         2797
  C:0A80H         LINE#         2798
  C:0A82H         LINE#         2804
  C:0A85H         LINE#         2806
  C:0A87H         LINE#         2807
  C:0A89H         LINE#         2808
  C:0A8BH         LINE#         2808
  C:0A8DH         LINE#         2809
  C:0A8FH         LINE#         2809
  C:0A92H         LINE#         2810
  C:0A94H         LINE#         2811
  C:0A97H         LINE#         2812
  C:0A99H         LINE#         2815
  C:0A9BH         LINE#         2816
  C:0A9DH         LINE#         2817
  C:0A9FH         LINE#         2817
  C:0AA1H         LINE#         2818
  C:0AA3H         LINE#         2818
  C:0AA6H         LINE#         2819
  C:0AA8H         LINE#         2820
  C:0AABH         LINE#         2821
  C:0AADH         LINE#         2827
  C:0AB0H         LINE#         2829
  C:0AB2H         LINE#         2830
  C:0AB4H         LINE#         2831
  C:0AB6H         LINE#         2831
  C:0AB9H         LINE#         2832
  C:0ABBH         LINE#         2832
  C:0ABDH         LINE#         2833
  C:0ABFH         LINE#         2834
  C:0AC2H         LINE#         2835
  C:0AC4H         LINE#         2838
  C:0AC6H         LINE#         2839
  C:0AC8H         LINE#         2840
  C:0ACAH         LINE#         2840
  C:0ACDH         LINE#         2841
  C:0ACFH         LINE#         2841
  C:0AD1H         LINE#         2842
  C:0AD3H         LINE#         2843
  C:0AD6H         LINE#         2844
  C:0AD8H         LINE#         2850
  C:0ADBH         LINE#         2852
  C:0ADDH         LINE#         2853
  C:0ADFH         LINE#         2854
  C:0AE1H         LINE#         2854
  C:0AE3H         LINE#         2855
BL51 BANKED LINKER/LOCATER V6.22.2.0                                                  02/17/2021  22:51:27  PAGE 47


  C:0AE5H         LINE#         2855
  C:0AE8H         LINE#         2856
  C:0AEAH         LINE#         2857
  C:0AEDH         LINE#         2858
  C:0AEFH         LINE#         2861
  C:0AF1H         LINE#         2862
  C:0AF3H         LINE#         2863
  C:0AF5H         LINE#         2863
  C:0AF7H         LINE#         2864
  C:0AF9H         LINE#         2864
  C:0AFCH         LINE#         2865
  C:0AFEH         LINE#         2866
  C:0B01H         LINE#         2867
  C:0B03H         LINE#         2873
  C:0B06H         LINE#         2875
  C:0B08H         LINE#         2876
  C:0B0AH         LINE#         2877
  C:0B0CH         LINE#         2877
  C:0B0FH         LINE#         2878
  C:0B11H         LINE#         2878
  C:0B13H         LINE#         2879
  C:0B15H         LINE#         2880
  C:0B18H         LINE#         2881
  C:0B1AH         LINE#         2884
  C:0B1CH         LINE#         2885
  C:0B1EH         LINE#         2886
  C:0B20H         LINE#         2886
  C:0B23H         LINE#         2887
  C:0B25H         LINE#         2887
  C:0B27H         LINE#         2888
  C:0B29H         LINE#         2889
  C:0B2CH         LINE#         2892
  C:0B2DH         LINE#         2903
  C:0B2FH         LINE#         2904
  C:0B31H         LINE#         2905
  C:0B33H         LINE#         2908
  C:0B35H         LINE#         2909
  C:0B37H         LINE#         2910
  C:0B39H         LINE#         2913
  C:0B3BH         LINE#         2914
  C:0B3DH         LINE#         2915
  C:0B3FH         LINE#         2918
  C:0B41H         LINE#         2919
  C:0B43H         LINE#         2920
  C:0B45H         LINE#         2923
  C:0B47H         LINE#         2924
  C:0B4AH         LINE#         2925
  C:0B4BH         LINE#         2928
  C:0B4DH         LINE#         2930
  C:0B4EH         LINE#         2931
  C:0B50H         LINE#         2932
  C:0B53H         LINE#         2933
  C:0B55H         LINE#         2933
  C:0B57H         LINE#         2934
  C:0B5AH         LINE#         2935
  C:0B5CH         LINE#         2936
  C:0B5FH         LINE#         2937
BL51 BANKED LINKER/LOCATER V6.22.2.0                                                  02/17/2021  22:51:27  PAGE 48


  C:0B61H         LINE#         2937
  C:0B63H         LINE#         2938
  C:0B66H         LINE#         2940
  C:0B67H         LINE#         2941
  C:0B6AH         LINE#         2942
  C:0B6CH         LINE#         2942
  C:0B6EH         LINE#         2944
  C:0B71H         LINE#         2945
  C:0B73H         LINE#         2945
  C:0B75H         LINE#         2947
  C:0B77H         LINE#         2948
  C:0B7AH         LINE#         2950
  C:0B7BH         LINE#         2951
  C:0B7EH         LINE#         2952
  C:0B80H         LINE#         2954
  C:0B83H         LINE#         2955
  C:0B85H         LINE#         2957
  C:0B87H         LINE#         2958
  C:0B8AH         LINE#         2959
  C:0B8CH         LINE#         2961
  C:0B8DH         LINE#         2962
  C:0B8EH         LINE#         2964
  C:0B91H         LINE#         2965
  C:0B93H         LINE#         2966
  C:0B95H         LINE#         2967
  C:0B97H         LINE#         2968
  C:0B98H         LINE#         2981
  C:0B9AH         LINE#         2981
  C:0B9CH         LINE#         2981
  C:0B9EH         LINE#         2982
  C:0BA0H         LINE#         2982
  C:0BA2H         LINE#         2982
  C:0BA4H         LINE#         2983
  C:0BA7H         LINE#         2984
  C:0BA8H         LINE#         2997
  C:0BAAH         LINE#         2998
  C:0BACH         LINE#         2999
  C:0BADH         LINE#         3000
  C:0BAFH         LINE#         3001
  C:0BB0H         LINE#         3002
  C:0BB2H         LINE#         3003
  C:0BB3H         LINE#         3004
  C:0BB5H         LINE#         3005
  C:0BB6H         LINE#         3006
  C:0BB8H         LINE#         3007
  C:0BB9H         LINE#         3008
  C:0BBBH         LINE#         3009
  C:0BBCH         LINE#         3010
  C:0BBEH         LINE#         3011
  C:0BBFH         LINE#         3012
  C:0BC1H         LINE#         3013
  C:0BC2H         LINE#         3014
  C:0BC4H         LINE#         3016
  C:0BC6H         LINE#         3017
  C:0BC8H         LINE#         3018
  C:0BC9H         LINE#         3019
  C:0BCBH         LINE#         3020
BL51 BANKED LINKER/LOCATER V6.22.2.0                                                  02/17/2021  22:51:27  PAGE 49


  C:0BCCH         LINE#         3021
  C:0BCEH         LINE#         3022
  C:0BCFH         LINE#         3023
  C:0BD1H         LINE#         3024
  C:0BD2H         LINE#         3025
  C:0BD4H         LINE#         3026
  C:0BD5H         LINE#         3027
  C:0BD7H         LINE#         3028
  C:0BD8H         LINE#         3029
  C:0BDAH         LINE#         3030
  C:0BDBH         LINE#         3031
  C:0BDDH         LINE#         3032
  C:0BDEH         LINE#         3033
  C:0BE0H         LINE#         3034
  C:0BE1H         LINE#         3035
  C:0BE3H         LINE#         3036
  C:0BE4H         LINE#         3037
  C:0BE6H         LINE#         3038
  C:0BE7H         LINE#         3039
  C:0BE9H         LINE#         3040
  C:0BEAH         LINE#         3041
  C:0BECH         LINE#         3042
  C:0BEDH         LINE#         3043
  C:0BEFH         LINE#         3044
  C:0BF0H         LINE#         3045
  C:0BF2H         LINE#         3046
  C:0BF3H         LINE#         3047
  C:0BF5H         LINE#         3048
  C:0BF6H         LINE#         3049
  C:0BF8H         LINE#         3050
  C:0BF9H         LINE#         3051
  C:0BFBH         LINE#         3052
  C:0BFCH         LINE#         3053
  C:0BFEH         LINE#         3054
  C:0BFFH         LINE#         3055
  C:0C01H         LINE#         3056
  C:0C02H         LINE#         3057
  C:0C04H         LINE#         3058
  C:0C05H         LINE#         3059
  C:0C07H         LINE#         3060
  C:0C08H         LINE#         3061
  C:0C0AH         LINE#         3062
  C:0C0BH         LINE#         3063
  C:0C0DH         LINE#         3064
  C:0C0EH         LINE#         3065
  C:0C10H         LINE#         3066
  C:0C11H         LINE#         3067
  C:0C13H         LINE#         3068
  C:0C14H         LINE#         3082
  C:0C15H         LINE#         3083
  C:0C18H         LINE#         3084
  C:0C19H         LINE#         3085
  C:0C1BH         LINE#         3086
  C:0C1CH         LINE#         3087
  C:0C1DH         LINE#         3088
  C:0C1EH         LINE#         3089
  C:0C1FH         LINE#         3090
BL51 BANKED LINKER/LOCATER V6.22.2.0                                                  02/17/2021  22:51:27  PAGE 50


  C:0C21H         LINE#         3091
  C:0C22H         LINE#         3092
  C:0C23H         LINE#         3093
  C:0C24H         LINE#         3094
  C:0C25H         LINE#         3095
  C:0C26H         LINE#         3096
  C:0C27H         LINE#         3097
  C:0C28H         LINE#         3098
  C:0C29H         LINE#         3099
  C:0C2AH         LINE#         3100
  C:0C2BH         LINE#         3101
  C:0C2CH         LINE#         3102
  C:0C2DH         LINE#         3103
  C:0C2EH         LINE#         3104
  C:0C2FH         LINE#         3105
  C:0C31H         LINE#         3106
  C:0C32H         LINE#         3108
  C:0C33H         LINE#         3109
  C:0C34H         LINE#         3110
  C:0C35H         LINE#         3111
  C:0C36H         LINE#         3112
  C:0C37H         LINE#         3113
  C:0C38H         LINE#         3114
  C:0C39H         LINE#         3116
  C:0C3AH         LINE#         3130
  C:0C3CH         LINE#         3131
  C:0C3DH         LINE#         3132
  C:0C3EH         LINE#         3133
  C:0C40H         LINE#         3134
  C:0C42H         LINE#         3135
  C:0C44H         LINE#         3137
  C:0C46H         LINE#         3139
  C:0C48H         LINE#         3140
  C:0C49H         LINE#         3141
  C:0C4CH         LINE#         3142
  C:0C4EH         LINE#         3143
  C:0C50H         LINE#         3144
  C:0C52H         LINE#         3146
  C:0C54H         LINE#         3147
  C:0C55H         LINE#         3148
  C:0C56H         LINE#         3149
  C:0C59H         LINE#         3150
  C:0C5AH         LINE#         3151
  C:0C5CH         LINE#         3152
  C:0C5DH         LINE#         3154
  C:0C5FH         LINE#         3155
  C:0C60H         LINE#         3156
  C:0C62H         LINE#         3157
  C:0C63H         LINE#         3158
  C:0C65H         LINE#         3159
  C:0C67H         LINE#         3160
  C:0C6AH         LINE#         3162
  C:0C6CH         LINE#         3163
  C:0C6DH         LINE#         3164
  C:0C70H         LINE#         3166
  C:0C73H         LINE#         3168
  C:0C76H         LINE#         3171
BL51 BANKED LINKER/LOCATER V6.22.2.0                                                  02/17/2021  22:51:27  PAGE 51


  C:0C79H         LINE#         3173
  C:0C7CH         LINE#         3177
  C:0C7EH         LINE#         3178
  C:0C7FH         LINE#         3179
  C:0C80H         LINE#         3180
  C:0C82H         LINE#         3182
  C:0C84H         LINE#         3184
  C:0C86H         LINE#         3185
  C:0C88H         LINE#         3188
  C:0C8AH         LINE#         3190
  C:0C8CH         LINE#         3191
  C:0C8DH         LINE#         3192
  C:0C8FH         LINE#         3193
  C:0C91H         LINE#         3194
  C:0C93H         LINE#         3195
  C:0C95H         LINE#         3196
  C:0C96H         LINE#         3197
  C:0C98H         LINE#         3198
  C:0C9AH         LINE#         3199
  C:0C9CH         LINE#         3200
  C:0C9EH         LINE#         3201
  C:0C9FH         LINE#         3202
  C:0CA1H         LINE#         3203
  C:0CA3H         LINE#         3204
  C:0CA5H         LINE#         3205
  C:0CA7H         LINE#         3206
  C:0CA8H         LINE#         3220
  C:0CABH         LINE#         3222
  C:0CADH         LINE#         3223
  C:0CAFH         LINE#         3224
  C:0CB1H         LINE#         3225
  C:0CB3H         LINE#         3226
  C:0CB5H         LINE#         3227
  C:0CB7H         LINE#         3228
  C:0CB9H         LINE#         3229
  C:0CBBH         LINE#         3230
  C:0CBCH         LINE#         3234
  C:0CBFH         LINE#         3236
  C:0CC1H         LINE#         3237
  C:0CC2H         LINE#         3238
  C:0CC3H         LINE#         3239
  C:0CC5H         LINE#         3240
  C:0CC7H         LINE#         3241
  C:0CC8H         LINE#         3242
  C:0CC9H         LINE#         3243
  C:0CCBH         LINE#         3244
  C:0CCCH         LINE#         3245
  C:0CCDH         LINE#         3246
  C:0CCEH         LINE#         3247
  C:0CCFH         LINE#         3248
  C:0CD0H         LINE#         3249
  C:0CD1H         LINE#         3250
  C:0CD2H         LINE#         3251
  C:0CD3H         LINE#         3252
  C:0CD4H         LINE#         3253
  C:0CD5H         LINE#         3254
  C:0CD6H         LINE#         3255
BL51 BANKED LINKER/LOCATER V6.22.2.0                                                  02/17/2021  22:51:27  PAGE 52


  C:0CD7H         LINE#         3256
  C:0CD8H         LINE#         3257
  C:0CD9H         LINE#         3258
  C:0CDBH         LINE#         3259
  C:0CDDH         LINE#         3260
  C:0CDFH         LINE#         3261
  C:0CE1H         LINE#         3264
  C:0CE3H         LINE#         3265
  C:0CE6H         LINE#         3267
  C:0CE8H         LINE#         3269
  C:0CE9H         LINE#         3270
  C:0CEAH         LINE#         3271
  C:0CECH         LINE#         3272
  C:0CEEH         LINE#         3273
  C:0CEFH         LINE#         3274
  C:0CF0H         LINE#         3275
  C:0CF2H         LINE#         3276
  C:0CF4H         LINE#         3277
  C:0CF7H         LINE#         3279
  C:0CF8H         LINE#         3280
  C:0CF9H         LINE#         3281
  C:0CFAH         LINE#         3282
  C:0CFBH         LINE#         3283
  C:0CFCH         LINE#         3284
  C:0CFDH         LINE#         3285
  C:0CFEH         LINE#         3286
  C:0CFFH         LINE#         3287
  C:0D00H         LINE#         3288
  C:0D01H         LINE#         3289
  C:0D02H         LINE#         3290
  C:0D03H         LINE#         3291
  C:0D04H         LINE#         3292
  C:0D05H         LINE#         3293
  C:0D07H         LINE#         3296
  C:0D09H         LINE#         3297
  C:0D0BH         LINE#         3298
  C:0D0DH         LINE#         3299
  C:0D0EH         LINE#         3314
  C:0D0FH         LINE#         3315
  C:0D10H         LINE#         3316
  C:0D11H         LINE#         3317
  C:0D12H         LINE#         3318
  C:0D13H         LINE#         3319
  C:0D15H         LINE#         3320
  C:0D16H         LINE#         3322
  C:0D17H         LINE#         3323
  C:0D18H         LINE#         3324
  C:0D19H         LINE#         3325
  C:0D1AH         LINE#         3326
  C:0D1BH         LINE#         3327
  C:0D1CH         LINE#         3328
  C:0D1DH         LINE#         3330
  C:0D1EH         LINE#         3331
  C:0D1FH         LINE#         3332
  C:0D21H         LINE#         3333
  C:0D22H         LINE#         3334
  C:0D24H         LINE#         3335
BL51 BANKED LINKER/LOCATER V6.22.2.0                                                  02/17/2021  22:51:27  PAGE 53


  C:0D26H         LINE#         3337
  C:0D28H         LINE#         3338
  C:0D2AH         LINE#         3341
  C:0D2BH         LINE#         3342
  C:0D2CH         LINE#         3343
  C:0D2EH         LINE#         3344
  C:0D2FH         LINE#         3345
  C:0D31H         LINE#         3346
  C:0D33H         LINE#         3348
  C:0D35H         LINE#         3349
  C:0D37H         LINE#         3352
  C:0D39H         LINE#         3354
  C:0D3AH         LINE#         3355
  C:0D3CH         LINE#         3357
  C:0D3DH         LINE#         3358
  C:0D3EH         LINE#         3359
  C:0D40H         LINE#         3361
  C:0D41H         LINE#         3362
  C:0D42H         LINE#         3363
  C:0D43H         LINE#         3364
  C:0D44H         LINE#         3365
  C:0D45H         LINE#         3366
  C:0D46H         LINE#         3367
  C:0D47H         LINE#         3368
  C:0D49H         LINE#         3371
  C:0D4AH         LINE#         3372
  C:0D4CH         LINE#         3373
  C:0D4DH         LINE#         3374
  C:0D4FH         LINE#         3375
  C:0D50H         LINE#         3376
  C:0D52H         LINE#         3377
  C:0D53H         LINE#         3378
  C:0D54H         LINE#         3379
  C:0D56H         LINE#         3380
  C:0D58H         LINE#         3382
  C:0D59H         LINE#         3383
  C:0D5AH         LINE#         3384
  C:0D5CH         LINE#         3386
  C:0D5DH         LINE#         3399
  C:0D5FH         LINE#         3400
  C:0D61H         LINE#         3401
  C:0D64H         LINE#         3402
  C:0D67H         LINE#         3403
  C:0D69H         LINE#         3404
  C:0D6BH         LINE#         3405
  C:0D6DH         LINE#         3407
  C:0D70H         LINE#         3408
  C:0D72H         LINE#         3409
  C:0D73H         LINE#         3410
  C:0D74H         LINE#         3411
  C:0D76H         LINE#         3412
  C:0D77H         LINE#         3413
  C:0D78H         LINE#         3414
  C:0D7AH         LINE#         3416
  C:0D7CH         LINE#         3418
  C:0D7DH         LINE#         3419
  C:0D7EH         LINE#         3420
BL51 BANKED LINKER/LOCATER V6.22.2.0                                                  02/17/2021  22:51:27  PAGE 54


  C:0D7FH         LINE#         3421
  C:0D80H         LINE#         3422
  C:0D81H         LINE#         3423
  C:0D82H         LINE#         3424
  C:0D83H         LINE#         3425
  C:0D85H         LINE#         3427
  C:0D86H         LINE#         3428
  C:0D87H         LINE#         3429
  C:0D89H         LINE#         3431
  C:0D8BH         LINE#         3433
  C:0D8DH         LINE#         3434
  C:0D8FH         LINE#         3435
  C:0D90H         LINE#         3448
  C:0D92H         LINE#         3449
  C:0D93H         LINE#         3450
  C:0D94H         LINE#         3451
  C:0D96H         LINE#         3452
  C:0D98H         LINE#         3453
  C:0D9AH         LINE#         3454
  C:0D9CH         LINE#         3456
  C:0D9DH         LINE#         3457
  C:0D9FH         LINE#         3459
  C:0DA1H         LINE#         3462
  C:0DA2H         LINE#         3463
  C:0DA4H         LINE#         3465
  C:0DA6H         LINE#         3468
  C:0DA7H         LINE#         3469
  C:0DA9H         LINE#         3471
  C:0DABH         LINE#         3474
  C:0DACH         LINE#         3490
  C:0DAFH         LINE#         3491
  C:0DB2H         LINE#         3493
  C:0DB5H         LINE#         3494
  C:0DB8H         LINE#         3496
  C:0DBBH         LINE#         3498
  C:0DBEH         LINE#         3499
  C:0DC1H         LINE#         3501
  C:0DC4H         LINE#         3503
  C:0DC6H         LINE#         3505
  C:0DC9H         LINE#         3506
  C:0DCCH         LINE#         3507
  C:0DCFH         LINE#         3508
  C:0DD2H         LINE#         3509
  C:0DD5H         LINE#         3510
  C:0DD8H         LINE#         3511
  C:0DDBH         LINE#         3512
  C:0DDEH         LINE#         3513
  C:0DE1H         LINE#         3514
  C:0DE4H         LINE#         3515
  C:0DE7H         LINE#         3517
  C:0DEAH         LINE#         3517
  C:0DEDH         LINE#         3519
  C:0DEFH         LINE#         3521
  C:0DF0H         LINE#         3522
  C:0DF1H         LINE#         3524
  C:0DF2H         LINE#         3525
  C:0DF4H         LINE#         3527
BL51 BANKED LINKER/LOCATER V6.22.2.0                                                  02/17/2021  22:51:27  PAGE 55


  C:0DF6H         LINE#         3529
  C:0DF9H         LINE#         3531
  C:0DFBH         LINE#         3532
  C:0DFDH         LINE#         3534
  C:0E00H         LINE#         3536
  C:0E02H         LINE#         3537
  C:0E05H         LINE#         3538
  C:0E07H         LINE#         3539
  C:0E0AH         LINE#         3540
  C:0E0CH         LINE#         3541
  C:0E0FH         LINE#         3542
  C:0E11H         LINE#         3543
  C:0E14H         LINE#         3544
  C:0E16H         LINE#         3545
  C:0E18H         LINE#         3555
  C:0E1AH         LINE#         3557
  C:0E1DH         LINE#         3558
  C:0E20H         LINE#         3560
  C:0E22H         LINE#         3562
  C:0E24H         LINE#         3564
  C:0E27H         LINE#         3565
  C:0E29H         LINE#         3566
  C:0E2BH         LINE#         3568
  C:0E2EH         LINE#         3572
  C:0E30H         LINE#         3574
  C:0E32H         LINE#         3576
  C:0E34H         LINE#         3577
  C:0E36H         LINE#         3579
  C:0E38H         LINE#         3582
  C:0E3BH         LINE#         3582
  C:0E3EH         LINE#         3582
  C:0E41H         LINE#         3582
  C:0E44H         LINE#         3582
  C:0E47H         LINE#         3585
  C:0E4AH         LINE#         3586
  C:0E4DH         LINE#         3587
  C:0E50H         LINE#         3588
  C:0E53H         LINE#         3589
  C:0E56H         LINE#         3590
  C:0E59H         LINE#         3591
  C:0E5CH         LINE#         3591
  C:0E5FH         LINE#         3591
  C:0E62H         LINE#         3591
  C:0E65H         LINE#         3592
  C:0E68H         LINE#         3593
  C:0E6BH         LINE#         3594
  C:0E6EH         LINE#         3599
  C:0E71H         LINE#         3601
  C:0E74H         LINE#         3602
  C:0E77H         LINE#         3604
  C:0E7AH         LINE#         3604
  C:0E7DH         LINE#         3606
  C:0E80H         LINE#         3606
  C:0E83H         LINE#         3606
  C:0E86H         LINE#         3606
  C:0E89H         LINE#         3606
  C:0E8CH         LINE#         3607
BL51 BANKED LINKER/LOCATER V6.22.2.0                                                  02/17/2021  22:51:27  PAGE 56


  C:0E8FH         LINE#         3608
  C:0E91H         LINE#         3610
  C:0E94H         LINE#         3612
  C:0E96H         LINE#         3613
  C:0E99H         LINE#         3615
  C:0E9BH         LINE#         3616
  C:0E9DH         LINE#         3617
  C:0E9FH         LINE#         3618
  C:0EA1H         LINE#         3619
  C:0EA4H         LINE#         3620
  C:0EA7H         LINE#         3622
  C:0EAAH         LINE#         3623
  C:0EADH         LINE#         3624
  C:0EAEH         LINE#         3625
  C:0EB0H         LINE#         3626
  C:0EB2H         LINE#         3627
  C:0EB4H         LINE#         3628
  C:0EB6H         LINE#         3631
  C:0EB8H         LINE#         3632
  C:0EBBH         LINE#         3633
  C:0EBEH         LINE#         3634
  C:0EBFH         LINE#         3635
  C:0EC1H         LINE#         3636
  C:0EC3H         LINE#         3637
  C:0EC5H         LINE#         3638
  C:0EC7H         LINE#         3641
  C:0EC9H         LINE#         3642
  C:0ECBH         LINE#         3643
  C:0ECEH         LINE#         3644
  C:0ED1H         LINE#         3645
  C:0ED2H         LINE#         3646
  C:0ED4H         LINE#         3647
  C:0ED6H         LINE#         3648
  C:0ED8H         LINE#         3649
  C:0EDAH         LINE#         3652
  C:0EDDH         LINE#         3653
  C:0EE0H         LINE#         3654
  C:0EE3H         LINE#         3655
  C:0EE6H         LINE#         3656
  C:0EE9H         LINE#         3657
  C:0EECH         LINE#         3659
  C:0EEEH         LINE#         3660
  C:0EF0H         LINE#         3661
  C:0EF2H         LINE#         3664
  C:0EF5H         LINE#         3668
  C:0EF8H         LINE#         3669
  C:0EFBH         LINE#         3671
  C:0EFDH         LINE#         3672
  C:0EFFH         LINE#         3673
  C:0F02H         LINE#         3674
  C:0F05H         LINE#         3675
  C:0F08H         LINE#         3676
  C:0F09H         LINE#         3677
  C:0F0BH         LINE#         3678
  C:0F0DH         LINE#         3679
  C:0F10H         LINE#         3680
  C:0F13H         LINE#         3681
BL51 BANKED LINKER/LOCATER V6.22.2.0                                                  02/17/2021  22:51:27  PAGE 57


  C:0F15H         LINE#         3684
  C:0F18H         LINE#         3686
  C:0F1BH         LINE#         3690
  C:0F1EH         LINE#         3691
  C:0F21H         LINE#         3693
  C:0F24H         LINE#         3694
  C:0F27H         LINE#         3695
  C:0F2AH         LINE#         3696
  C:0F2BH         LINE#         3697
  C:0F2DH         LINE#         3698
  C:0F2FH         LINE#         3699
  C:0F32H         LINE#         3700
  C:0F35H         LINE#         3701
  C:0F37H         LINE#         3704
  C:0F3AH         LINE#         3706
  C:0F3DH         LINE#         3710
  C:0F40H         LINE#         3711
  C:0F43H         LINE#         3713
  C:0F46H         LINE#         3714
  C:0F49H         LINE#         3715
  C:0F4CH         LINE#         3716
  C:0F4DH         LINE#         3717
  C:0F4FH         LINE#         3718
  C:0F51H         LINE#         3719
  C:0F54H         LINE#         3720
  C:0F57H         LINE#         3721
  C:0F59H         LINE#         3724
  C:0F5CH         LINE#         3725
  C:0F5FH         LINE#         3726
  C:0F62H         LINE#         3727
  C:0F65H         LINE#         3729
  C:0F67H         LINE#         3730
  C:0F69H         LINE#         3731
  C:0F6BH         LINE#         3733
  C:0F6DH         LINE#         3734
  C:0F6FH         LINE#         3735
  C:0F72H         LINE#         3736
  C:0F75H         LINE#         3737
  C:0F76H         LINE#         3738
  C:0F78H         LINE#         3739
  C:0F7AH         LINE#         3740
  C:0F7CH         LINE#         3742
  C:0F7EH         LINE#         3746
  C:0F81H         LINE#         3747
  C:0F84H         LINE#         3748
  C:0F87H         LINE#         3751
  C:0F89H         LINE#         3752
  C:0F8BH         LINE#         3753
  C:0F8DH         LINE#         3754
  C:0F8FH         LINE#         3755
  C:0F91H         LINE#         3756
  C:0F94H         LINE#         3760
  C:0F97H         LINE#         3761
  C:0F9AH         LINE#         3763
  C:0F9DH         LINE#         3765
  C:0FA0H         LINE#         3766
  C:0FA2H         LINE#         3767
BL51 BANKED LINKER/LOCATER V6.22.2.0                                                  02/17/2021  22:51:27  PAGE 58


  C:0FA3H         LINE#         3768
  C:0FA4H         LINE#         3769
  C:0FA6H         LINE#         3770
  C:0FA8H         LINE#         3772
  C:0FABH         LINE#         3775
  C:0FADH         LINE#         3776
  C:0FAEH         LINE#         3777
  C:0FB0H         LINE#         3778
  C:0FB2H         LINE#         3780
  C:0FB5H         LINE#         3784
  C:0FB8H         LINE#         3785
  C:0FBBH         LINE#         3787
  C:0FBDH         LINE#         3789
  C:0FBFH         LINE#         3790
  C:0FC1H         LINE#         3791
  C:0FC4H         LINE#         3792
  C:0FC6H         LINE#         3793
  C:0FC8H         LINE#         3794
  C:0FCAH         LINE#         3795
  C:0FCBH         LINE#         3796
  C:0FCDH         LINE#         3797
  C:0FCFH         LINE#         3798
  C:0FD1H         LINE#         3799
  C:0FD3H         LINE#         3801
  C:0FD6H         LINE#         3802
  C:0FD8H         LINE#         3803
  C:0FDAH         LINE#         3804
  C:0FDCH         LINE#         3805
  C:0FDEH         LINE#         3807
  C:0FE0H         LINE#         3808
  C:0FE1H         LINE#         3809
  C:0FE2H         LINE#         3810
  C:0FE4H         LINE#         3811
  C:0FE5H         LINE#         3812
  C:0FE8H         LINE#         3813
  C:0FEBH         LINE#         3816
  C:0FEDH         LINE#         3818
  C:0FEFH         LINE#         3819
  C:0FF1H         LINE#         3820
  C:0FF4H         LINE#         3821
  C:0FF6H         LINE#         3822
  C:0FF8H         LINE#         3823
  C:0FFAH         LINE#         3824
  C:0FFBH         LINE#         3825
  C:0FFDH         LINE#         3826
  C:0FFFH         LINE#         3827
  C:1001H         LINE#         3828
  C:1003H         LINE#         3830
  C:1006H         LINE#         3831
  C:1008H         LINE#         3832
  C:100BH         LINE#         3833
  C:100EH         LINE#         3834
  C:1011H         LINE#         3835
  C:1013H         LINE#         3836
  C:1015H         LINE#         3838
  C:1018H         LINE#         3839
  C:1019H         LINE#         3840
BL51 BANKED LINKER/LOCATER V6.22.2.0                                                  02/17/2021  22:51:27  PAGE 59


  C:101BH         LINE#         3841
  C:101DH         LINE#         3842
  C:101EH         LINE#         3843
  C:101FH         LINE#         3844
  C:1021H         LINE#         3845
  C:1022H         LINE#         3846
  C:1023H         LINE#         3847
  C:1025H         LINE#         3848
  C:1027H         LINE#         3849
  C:1028H         LINE#         3850
  C:102AH         LINE#         3853
  C:102BH         LINE#         3854
  C:102DH         LINE#         3855
  C:102FH         LINE#         3856
  C:1030H         LINE#         3859
  C:1033H         LINE#         3860
  C:1035H         LINE#         3861
  C:1037H         LINE#         3864
  C:103AH         LINE#         3865
  C:103DH         LINE#         3866
  C:1040H         LINE#         3870
  C:1043H         LINE#         3871
  C:1046H         LINE#         3872
  C:1049H         LINE#         3873
  C:104AH         LINE#         3874
  C:104CH         LINE#         3875
  C:104EH         LINE#         3876
  C:1050H         LINE#         3878
  C:1053H         LINE#         3882
  C:1055H         LINE#         3883
  C:1058H         LINE#         3884
  C:105BH         LINE#         3885
  C:105EH         LINE#         3886
  C:1060H         LINE#         3887
  C:1063H         LINE#         3890
  C:1066H         LINE#         3894
  C:1067H         LINE#         3895
  C:1069H         LINE#         3896
  C:106BH         LINE#         3898
  C:106DH         LINE#         3899
  C:106FH         LINE#         3900
  C:1070H         LINE#         3901
  C:1072H         LINE#         3903
  C:1074H         LINE#         3904
  C:1076H         LINE#         3905
  C:1077H         LINE#         3906
  C:1079H         LINE#         3907
  C:107AH         LINE#         3908
  C:107CH         LINE#         3910
  C:107EH         LINE#         3911
  C:107FH         LINE#         3912
  C:1081H         LINE#         3914
  C:1083H         LINE#         3915
  C:1084H         LINE#         3916
  C:1086H         LINE#         3918
  C:1088H         LINE#         3919
  C:1089H         LINE#         3920
BL51 BANKED LINKER/LOCATER V6.22.2.0                                                  02/17/2021  22:51:27  PAGE 60


  C:108BH         LINE#         3922
  C:108EH         LINE#         3925
  C:108FH         LINE#         3926
  C:1091H         LINE#         3927
  C:1092H         LINE#         3928
  C:1094H         LINE#         3930
  C:1097H         LINE#         3931
  C:109AH         LINE#         3932
  C:109CH         LINE#         3933
  C:109FH         LINE#         3934
  C:10A1H         LINE#         3935
  C:10A3H         LINE#         3936
  C:10A5H         LINE#         3937
  C:10A8H         LINE#         3938
  C:10AAH         LINE#         3939
  C:10ACH         LINE#         3940
  C:10AEH         LINE#         3941
  C:10B1H         LINE#         3944
  C:10B4H         LINE#         3945
  C:10B6H         LINE#         3946
  C:10B8H         LINE#         3948
  C:10BBH         LINE#         3951
  C:10BCH         LINE#         3952
  C:10BEH         LINE#         3953
  C:10C0H         LINE#         3954
  C:10C2H         LINE#         3956
  C:10C3H         LINE#         3957
  C:10C5H         LINE#         3958
  C:10C7H         LINE#         3959
  C:10C9H         LINE#         3961
  C:10CCH         LINE#         3964
  C:10CFH         LINE#         3965
  C:10D1H         LINE#         3966
  C:10D3H         LINE#         3967
  C:10D6H         LINE#         3969
  C:10D9H         LINE#         3970
  C:10DCH         LINE#         3971
  C:10DFH         LINE#         3974
  C:10E0H         LINE#         3975
  C:10E2H         LINE#         3976
  C:10E4H         LINE#         3977
  C:10E6H         LINE#         3979
  C:10E8H         LINE#         3980
  C:10EBH         LINE#         3981
  C:10EDH         LINE#         3982
  C:10EFH         LINE#         3983
  C:10F2H         LINE#         3984
  C:10F4H         LINE#         3985
  C:10F6H         LINE#         3986
  C:10F8H         LINE#         3987
  C:10FBH         LINE#         3988
  C:10FDH         LINE#         3991
  C:10FEH         LINE#         3992
  C:1100H         LINE#         3993
  C:1102H         LINE#         3994
  C:1104H         LINE#         3996
  C:1106H         LINE#         3997
BL51 BANKED LINKER/LOCATER V6.22.2.0                                                  02/17/2021  22:51:27  PAGE 61


  C:1109H         LINE#         3998
  C:110BH         LINE#         3999
  C:110DH         LINE#         4000
  C:1110H         LINE#         4001
  C:1112H         LINE#         4002
  C:1114H         LINE#         4003
  C:1116H         LINE#         4004
  C:1119H         LINE#         4005
  C:111BH         LINE#         4008
  C:111CH         LINE#         4009
  C:111EH         LINE#         4010
  C:1120H         LINE#         4011
  C:1122H         LINE#         4013
  C:1124H         LINE#         4014
  C:1127H         LINE#         4015
  C:1129H         LINE#         4016
  C:112BH         LINE#         4017
  C:112EH         LINE#         4018
  C:1130H         LINE#         4019
  C:1132H         LINE#         4020
  C:1134H         LINE#         4021
  C:1137H         LINE#         4022
  C:1139H         LINE#         4025
  C:113AH         LINE#         4026
  C:113CH         LINE#         4027
  C:113EH         LINE#         4028
  C:1140H         LINE#         4030
  C:1142H         LINE#         4031
  C:1145H         LINE#         4032
  C:1147H         LINE#         4033
  C:1149H         LINE#         4034
  C:114CH         LINE#         4035
  C:114EH         LINE#         4036
  C:1150H         LINE#         4037
  C:1152H         LINE#         4038
  C:1155H         LINE#         4039
  C:1157H         LINE#         4042
  C:1158H         LINE#         4043
  C:115AH         LINE#         4044
  C:115CH         LINE#         4045
  C:115EH         LINE#         4047
  C:1160H         LINE#         4048
  C:1163H         LINE#         4049
  C:1165H         LINE#         4050
  C:1167H         LINE#         4051
  C:116AH         LINE#         4052
  C:116CH         LINE#         4053
  C:116EH         LINE#         4054
  C:1170H         LINE#         4055
  C:1173H         LINE#         4056
  C:1175H         LINE#         4059
  C:1176H         LINE#         4060
  C:1178H         LINE#         4061
  C:117AH         LINE#         4062
  C:117CH         LINE#         4064
  C:117DH         LINE#         4065
  C:117FH         LINE#         4066
BL51 BANKED LINKER/LOCATER V6.22.2.0                                                  02/17/2021  22:51:27  PAGE 62


  C:1181H         LINE#         4067
  C:1183H         LINE#         4068
  C:1185H         LINE#         4070
  C:1187H         LINE#         4071
  C:118AH         LINE#         4072
  C:118CH         LINE#         4073
  C:118EH         LINE#         4074
  C:118FH         LINE#         4075
  C:1191H         LINE#         4076
  C:1193H         LINE#         4077
  C:1195H         LINE#         4080
  C:1196H         LINE#         4081
  C:1198H         LINE#         4082
  C:119AH         LINE#         4083
  C:119CH         LINE#         4085
  C:119DH         LINE#         4086
  C:119FH         LINE#         4087
  C:11A1H         LINE#         4088
  C:11A3H         LINE#         4089
  C:11A5H         LINE#         4091
  C:11A7H         LINE#         4092
  C:11AAH         LINE#         4093
  C:11ACH         LINE#         4094
  C:11AEH         LINE#         4095
  C:11AFH         LINE#         4096
  C:11B1H         LINE#         4097
  C:11B3H         LINE#         4098
  C:11B5H         LINE#         4101
  C:11B6H         LINE#         4102
  C:11B8H         LINE#         4103
  C:11BAH         LINE#         4104
  C:11BCH         LINE#         4106
  C:11BDH         LINE#         4107
  C:11BFH         LINE#         4108
  C:11C1H         LINE#         4109
  C:11C3H         LINE#         4110
  C:11C5H         LINE#         4112
  C:11C8H         LINE#         4114
  C:11C9H         LINE#         4115
  C:11CBH         LINE#         4116
  C:11CCH         LINE#         4117
  C:11CEH         LINE#         4118
  C:11CFH         LINE#         4119
  C:11D1H         LINE#         4120
  C:11D3H         LINE#         4123
  C:11D4H         LINE#         4124
  C:11D6H         LINE#         4125
  C:11D8H         LINE#         4126
  C:11DAH         LINE#         4128
  C:11DBH         LINE#         4129
  C:11DDH         LINE#         4130
  C:11DFH         LINE#         4131
  C:11E1H         LINE#         4132
  C:11E3H         LINE#         4134
  C:11E6H         LINE#         4136
  C:11E8H         LINE#         4137
  C:11E9H         LINE#         4138
BL51 BANKED LINKER/LOCATER V6.22.2.0                                                  02/17/2021  22:51:27  PAGE 63


  C:11EBH         LINE#         4139
  C:11ECH         LINE#         4140
  C:11EEH         LINE#         4141
  C:11F0H         LINE#         4144
  C:11F1H         LINE#         4145
  C:11F3H         LINE#         4146
  C:11F5H         LINE#         4147
  C:11F7H         LINE#         4149
  C:11F8H         LINE#         4150
  C:11FAH         LINE#         4151
  C:11FCH         LINE#         4152
  C:11FEH         LINE#         4153
  C:1200H         LINE#         4155
  C:1202H         LINE#         4156
  C:1205H         LINE#         4157
  C:1207H         LINE#         4158
  C:1208H         LINE#         4159
  C:120AH         LINE#         4160
  C:120CH         LINE#         4161
  C:120DH         LINE#         4162
  C:120EH         LINE#         4163
  C:1210H         LINE#         4164
  C:1212H         LINE#         4165
  C:1214H         LINE#         4166
  C:1216H         LINE#         4167
  C:1218H         LINE#         4168
  C:121AH         LINE#         4169
  C:121CH         LINE#         4172
  C:121DH         LINE#         4173
  C:121FH         LINE#         4174
  C:1221H         LINE#         4175
  C:1223H         LINE#         4177
  C:1224H         LINE#         4178
  C:1226H         LINE#         4179
  C:1228H         LINE#         4180
  C:122AH         LINE#         4182
  C:122CH         LINE#         4183
  C:122FH         LINE#         4184
  C:1231H         LINE#         4185
  C:1232H         LINE#         4186
  C:1234H         LINE#         4187
  C:1235H         LINE#         4188
  C:1238H         LINE#         4189
  C:123AH         LINE#         4190
  C:123DH         LINE#         4191
  C:123FH         LINE#         4192
  C:1242H         LINE#         4193
  C:1244H         LINE#         4194
  C:1247H         LINE#         4195
  C:1249H         LINE#         4196
  C:124BH         LINE#         4197
  C:124CH         LINE#         4198
  C:124DH         LINE#         4199
  C:124FH         LINE#         4200
  C:1251H         LINE#         4201
  C:1253H         LINE#         4202
  C:1255H         LINE#         4203
BL51 BANKED LINKER/LOCATER V6.22.2.0                                                  02/17/2021  22:51:27  PAGE 64


  C:1257H         LINE#         4204
  C:1259H         LINE#         4205
  C:125BH         LINE#         4208
  C:125CH         LINE#         4209
  C:125EH         LINE#         4210
  C:1260H         LINE#         4211
  C:1262H         LINE#         4213
  C:1265H         LINE#         4214
  C:1268H         LINE#         4215
  C:1269H         LINE#         4216
  C:126BH         LINE#         4217
  C:126DH         LINE#         4218
  C:126FH         LINE#         4220
  C:1271H         LINE#         4221
  C:1273H         LINE#         4224
  C:1276H         LINE#         4225
  C:1279H         LINE#         4228
  C:127CH         LINE#         4229
  C:127FH         LINE#         4230
  C:1281H         LINE#         4238
  C:1283H         LINE#         4239
  C:1286H         LINE#         4240
  C:1287H         LINE#         4241
  C:1289H         LINE#         4242
  C:128AH         LINE#         4243
  C:128CH         LINE#         4244
  C:128EH         LINE#         4245
  C:1290H         LINE#         4246
  C:1292H         LINE#         4250
  C:1295H         LINE#         4251
  C:1298H         LINE#         4252
  C:129BH         LINE#         4254
  C:129EH         LINE#         4255
  C:12A0H         LINE#         4255
  C:12A2H         LINE#         4256
  C:12A3H         LINE#         4257
  C:12A5H         LINE#         4259
  C:12A6H         LINE#         4261
  C:12A8H         LINE#         4262
  C:12ABH         LINE#         4263
  C:12AEH         LINE#         4265
  C:12B0H         LINE#         4266
  C:12B3H         LINE#         4267
  C:12B6H         LINE#         4268
  C:12B9H         LINE#         4269
  C:12BBH         LINE#         4272
  C:12BEH         LINE#         4272
  C:12C1H         LINE#         4272
  C:12C4H         LINE#         4272
  C:12C7H         LINE#         4272
  C:12CAH         LINE#         4274
  C:12CDH         LINE#         4276
  C:12CFH         LINE#         4277
  C:12D2H         LINE#         4278
  C:12D4H         LINE#         4281
  C:12D6H         LINE#         4282
  C:12D9H         LINE#         4283
BL51 BANKED LINKER/LOCATER V6.22.2.0                                                  02/17/2021  22:51:27  PAGE 65


  C:12DCH         LINE#         4284
  C:12DFH         LINE#         4285
  C:12E2H         LINE#         4286
  C:12E5H         LINE#         4287
  C:12E8H         LINE#         4288
  C:12EBH         LINE#         4289
  C:12EEH         LINE#         4302
  C:12F1H         LINE#         4305
  C:12F4H         LINE#         4306
  C:12F7H         LINE#         4307
  C:12FAH         LINE#         4315
  C:12FDH         LINE#         4318
  C:1300H         LINE#         4319
  C:1303H         LINE#         4320
  C:1306H         LINE#         4321
  C:1309H         LINE#         4322
  C:130CH         LINE#         4323
  C:130FH         LINE#         4324
  C:1312H         LINE#         4332
  C:1315H         LINE#         4335
  C:1318H         LINE#         4336
  C:131BH         LINE#         4337
  C:131EH         LINE#         4345
  C:1321H         LINE#         4348
  C:1324H         LINE#         4349
  C:1327H         LINE#         4350
  C:132AH         LINE#         4358
  C:132DH         LINE#         4361
  C:1330H         LINE#         4362
  C:1333H         LINE#         4363
  C:1336H         LINE#         4371
  C:1339H         LINE#         4372
  C:133CH         LINE#         4375
  C:133FH         LINE#         4376
  C:1342H         LINE#         4377
  C:1345H         LINE#         4378
  C:1348H         LINE#         4384
  C:134BH         LINE#         4387
  C:134EH         LINE#         4389
  C:1350H         LINE#         4390
  C:1352H         LINE#         4391
  C:1353H         LINE#         4392
  C:1355H         LINE#         4393
  C:1356H         LINE#         4394
  C:1358H         LINE#         4396
  C:135AH         LINE#         4397
  C:135CH         LINE#         4398
  C:135EH         LINE#         4399
  C:1361H         LINE#         4400
  C:1364H         LINE#         4401
  C:1366H         LINE#         4404
  C:1367H         LINE#         4405
  C:1369H         LINE#         4406
  C:136BH         LINE#         4407
  C:136DH         LINE#         4409
  C:1370H         LINE#         4411
  C:1372H         LINE#         4416
BL51 BANKED LINKER/LOCATER V6.22.2.0                                                  02/17/2021  22:51:27  PAGE 66


  C:1375H         LINE#         4417
  C:1378H         LINE#         4420
  C:137AH         LINE#         4421
  C:137BH         LINE#         4423
  C:137DH         LINE#         4425
  C:137FH         LINE#         4426
  C:1381H         LINE#         4427
  C:1383H         LINE#         4430
  C:1385H         LINE#         4432
  C:1388H         LINE#         4434
  C:1389H         LINE#         4435
  C:138BH         LINE#         4436
  C:138DH         LINE#         4437
  C:138FH         LINE#         4440
  C:1392H         LINE#         4442
  C:1394H         LINE#         4446
  C:1397H         LINE#         4448
  C:139AH         LINE#         4450
  C:139CH         LINE#         4451
  C:139EH         LINE#         4452
  C:139FH         LINE#         4453
  C:13A1H         LINE#         4455
  C:13A3H         LINE#         4457
  C:13A4H         LINE#         4458
  C:13A6H         LINE#         4459
  C:13A7H         LINE#         4460
  C:13A9H         LINE#         4463
  C:13ABH         LINE#         4464
  C:13ADH         LINE#         4467
  C:13B0H         LINE#         4469
  C:13B3H         LINE#         4470
  C:13B6H         LINE#         4471
  C:13B8H         LINE#         4474
  C:13BBH         LINE#         4475
  C:13BDH         LINE#         4478
  C:13C0H         LINE#         4480
  C:13C2H         LINE#         4481
  C:13C5H         LINE#         4482
  C:13C7H         LINE#         4485
  C:13C9H         LINE#         4486
  C:13CCH         LINE#         4488
  C:13CFH         LINE#         4489
  C:13D1H         LINE#         4492
  C:13D2H         LINE#         4493
  C:13D4H         LINE#         4494
  C:13D5H         LINE#         4495
  C:13D7H         LINE#         4496
  C:13DAH         LINE#         4498
  C:13DDH         LINE#         4500
  C:13DFH         LINE#         4501
  C:13E1H         LINE#         4502
  C:13E4H         LINE#         4503
  C:13E6H         LINE#         4504
  C:13E8H         LINE#         4505
  C:13EBH         LINE#         4506
  C:13EEH         LINE#         4507
  C:13F0H         LINE#         4510
BL51 BANKED LINKER/LOCATER V6.22.2.0                                                  02/17/2021  22:51:27  PAGE 67


  C:13F2H         LINE#         4511
  C:13F4H         LINE#         4512
  C:13F6H         LINE#         4513
  C:13F8H         LINE#         4516
  C:13FBH         LINE#         4519
  C:13FDH         LINE#         4520
  C:1400H         LINE#         4521
  C:1403H         LINE#         4522
  C:1406H         LINE#         4524
  C:1409H         LINE#         4524
  C:140CH         LINE#         4524
  C:140FH         LINE#         4524
  C:1412H         LINE#         4524
  C:1415H         LINE#         4526
  C:1417H         LINE#         4527
  C:141AH         LINE#         4528
  C:141DH         LINE#         4529
  C:141FH         LINE#         4530
  C:1420H         LINE#         4531
  C:1422H         LINE#         4533
  C:1424H         LINE#         4533
  C:1426H         LINE#         4534
  C:1428H         LINE#         4534
  C:142AH         LINE#         4535
  C:142CH         LINE#         4535
  C:142EH         LINE#         4538
  C:142FH         LINE#         4539
  C:1431H         LINE#         4540
  C:1433H         LINE#         4541
  C:1435H         LINE#         4542
  C:1438H         LINE#         4545
  C:19FDH         LINE#         4558
  -------         ENDMOD        BLHELI_S

Program Size: data=169.0 xdata=0 code=5993
LINK/LOCATE RUN COMPLETE.  0 WARNING(S),  0 ERROR(S)
